{
  "_format": "hh-sol-artifact-1",
  "contractName": "Adesso",
  "sourceName": "contracts/Adesso.sol",
  "abi": [
    {
      "inputs": [],
      "stateMutability": "nonpayable",
      "type": "constructor"
    },
    {
      "inputs": [],
      "name": "ERC721EnumerableForbiddenBatchMint",
      "type": "error"
    },
    {
      "inputs": [
        {
          "internalType": "address",
          "name": "sender",
          "type": "address"
        },
        {
          "internalType": "uint256",
          "name": "tokenId",
          "type": "uint256"
        },
        {
          "internalType": "address",
          "name": "owner",
          "type": "address"
        }
      ],
      "name": "ERC721IncorrectOwner",
      "type": "error"
    },
    {
      "inputs": [
        {
          "internalType": "address",
          "name": "operator",
          "type": "address"
        },
        {
          "internalType": "uint256",
          "name": "tokenId",
          "type": "uint256"
        }
      ],
      "name": "ERC721InsufficientApproval",
      "type": "error"
    },
    {
      "inputs": [
        {
          "internalType": "address",
          "name": "approver",
          "type": "address"
        }
      ],
      "name": "ERC721InvalidApprover",
      "type": "error"
    },
    {
      "inputs": [
        {
          "internalType": "address",
          "name": "operator",
          "type": "address"
        }
      ],
      "name": "ERC721InvalidOperator",
      "type": "error"
    },
    {
      "inputs": [
        {
          "internalType": "address",
          "name": "owner",
          "type": "address"
        }
      ],
      "name": "ERC721InvalidOwner",
      "type": "error"
    },
    {
      "inputs": [
        {
          "internalType": "address",
          "name": "receiver",
          "type": "address"
        }
      ],
      "name": "ERC721InvalidReceiver",
      "type": "error"
    },
    {
      "inputs": [
        {
          "internalType": "address",
          "name": "sender",
          "type": "address"
        }
      ],
      "name": "ERC721InvalidSender",
      "type": "error"
    },
    {
      "inputs": [
        {
          "internalType": "uint256",
          "name": "tokenId",
          "type": "uint256"
        }
      ],
      "name": "ERC721NonexistentToken",
      "type": "error"
    },
    {
      "inputs": [
        {
          "internalType": "address",
          "name": "owner",
          "type": "address"
        },
        {
          "internalType": "uint256",
          "name": "index",
          "type": "uint256"
        }
      ],
      "name": "ERC721OutOfBoundsIndex",
      "type": "error"
    },
    {
      "inputs": [
        {
          "internalType": "address",
          "name": "owner",
          "type": "address"
        }
      ],
      "name": "OwnableInvalidOwner",
      "type": "error"
    },
    {
      "inputs": [
        {
          "internalType": "address",
          "name": "account",
          "type": "address"
        }
      ],
      "name": "OwnableUnauthorizedAccount",
      "type": "error"
    },
    {
      "anonymous": false,
      "inputs": [
        {
          "indexed": true,
          "internalType": "address",
          "name": "owner",
          "type": "address"
        },
        {
          "indexed": true,
          "internalType": "address",
          "name": "approved",
          "type": "address"
        },
        {
          "indexed": true,
          "internalType": "uint256",
          "name": "tokenId",
          "type": "uint256"
        }
      ],
      "name": "Approval",
      "type": "event"
    },
    {
      "anonymous": false,
      "inputs": [
        {
          "indexed": true,
          "internalType": "address",
          "name": "owner",
          "type": "address"
        },
        {
          "indexed": true,
          "internalType": "address",
          "name": "operator",
          "type": "address"
        },
        {
          "indexed": false,
          "internalType": "bool",
          "name": "approved",
          "type": "bool"
        }
      ],
      "name": "ApprovalForAll",
      "type": "event"
    },
    {
      "anonymous": false,
      "inputs": [
        {
          "indexed": true,
          "internalType": "address",
          "name": "previousOwner",
          "type": "address"
        },
        {
          "indexed": true,
          "internalType": "address",
          "name": "newOwner",
          "type": "address"
        }
      ],
      "name": "OwnershipTransferred",
      "type": "event"
    },
    {
      "anonymous": false,
      "inputs": [
        {
          "indexed": true,
          "internalType": "address",
          "name": "from",
          "type": "address"
        },
        {
          "indexed": true,
          "internalType": "address",
          "name": "to",
          "type": "address"
        },
        {
          "indexed": true,
          "internalType": "uint256",
          "name": "tokenId",
          "type": "uint256"
        }
      ],
      "name": "Transfer",
      "type": "event"
    },
    {
      "inputs": [],
      "name": "_owner",
      "outputs": [
        {
          "internalType": "address",
          "name": "",
          "type": "address"
        }
      ],
      "stateMutability": "view",
      "type": "function"
    },
    {
      "inputs": [
        {
          "internalType": "address",
          "name": "to",
          "type": "address"
        },
        {
          "internalType": "uint256",
          "name": "tokenId",
          "type": "uint256"
        }
      ],
      "name": "approve",
      "outputs": [],
      "stateMutability": "nonpayable",
      "type": "function"
    },
    {
      "inputs": [
        {
          "internalType": "address",
          "name": "owner",
          "type": "address"
        }
      ],
      "name": "balanceOf",
      "outputs": [
        {
          "internalType": "uint256",
          "name": "",
          "type": "uint256"
        }
      ],
      "stateMutability": "view",
      "type": "function"
    },
    {
      "inputs": [
        {
          "internalType": "uint256",
          "name": "tokenId",
          "type": "uint256"
        }
      ],
      "name": "getApproved",
      "outputs": [
        {
          "internalType": "address",
          "name": "",
          "type": "address"
        }
      ],
      "stateMutability": "view",
      "type": "function"
    },
    {
      "inputs": [
        {
          "internalType": "address",
          "name": "owner",
          "type": "address"
        },
        {
          "internalType": "address",
          "name": "operator",
          "type": "address"
        }
      ],
      "name": "isApprovedForAll",
      "outputs": [
        {
          "internalType": "bool",
          "name": "",
          "type": "bool"
        }
      ],
      "stateMutability": "view",
      "type": "function"
    },
    {
      "inputs": [],
      "name": "maxSupply",
      "outputs": [
        {
          "internalType": "uint256",
          "name": "",
          "type": "uint256"
        }
      ],
      "stateMutability": "view",
      "type": "function"
    },
    {
      "inputs": [
        {
          "internalType": "uint256",
          "name": "_quantity",
          "type": "uint256"
        }
      ],
      "name": "mint",
      "outputs": [],
      "stateMutability": "payable",
      "type": "function"
    },
    {
      "inputs": [],
      "name": "mintPrice",
      "outputs": [
        {
          "internalType": "uint256",
          "name": "",
          "type": "uint256"
        }
      ],
      "stateMutability": "view",
      "type": "function"
    },
    {
      "inputs": [],
      "name": "name",
      "outputs": [
        {
          "internalType": "string",
          "name": "",
          "type": "string"
        }
      ],
      "stateMutability": "view",
      "type": "function"
    },
    {
      "inputs": [],
      "name": "owner",
      "outputs": [
        {
          "internalType": "address",
          "name": "",
          "type": "address"
        }
      ],
      "stateMutability": "view",
      "type": "function"
    },
    {
      "inputs": [
        {
          "internalType": "uint256",
          "name": "tokenId",
          "type": "uint256"
        }
      ],
      "name": "ownerOf",
      "outputs": [
        {
          "internalType": "address",
          "name": "",
          "type": "address"
        }
      ],
      "stateMutability": "view",
      "type": "function"
    },
    {
      "inputs": [],
      "name": "renounceOwnership",
      "outputs": [],
      "stateMutability": "nonpayable",
      "type": "function"
    },
    {
      "inputs": [
        {
          "internalType": "address",
          "name": "from",
          "type": "address"
        },
        {
          "internalType": "address",
          "name": "to",
          "type": "address"
        },
        {
          "internalType": "uint256",
          "name": "tokenId",
          "type": "uint256"
        }
      ],
      "name": "safeTransferFrom",
      "outputs": [],
      "stateMutability": "nonpayable",
      "type": "function"
    },
    {
      "inputs": [
        {
          "internalType": "address",
          "name": "from",
          "type": "address"
        },
        {
          "internalType": "address",
          "name": "to",
          "type": "address"
        },
        {
          "internalType": "uint256",
          "name": "tokenId",
          "type": "uint256"
        },
        {
          "internalType": "bytes",
          "name": "data",
          "type": "bytes"
        }
      ],
      "name": "safeTransferFrom",
      "outputs": [],
      "stateMutability": "nonpayable",
      "type": "function"
    },
    {
      "inputs": [
        {
          "internalType": "address",
          "name": "operator",
          "type": "address"
        },
        {
          "internalType": "bool",
          "name": "approved",
          "type": "bool"
        }
      ],
      "name": "setApprovalForAll",
      "outputs": [],
      "stateMutability": "nonpayable",
      "type": "function"
    },
    {
      "inputs": [
        {
          "internalType": "string",
          "name": "_baseTokenUri",
          "type": "string"
        }
      ],
      "name": "setBaseTokenUri",
      "outputs": [],
      "stateMutability": "nonpayable",
      "type": "function"
    },
    {
      "inputs": [
        {
          "internalType": "bytes4",
          "name": "interfaceId",
          "type": "bytes4"
        }
      ],
      "name": "supportsInterface",
      "outputs": [
        {
          "internalType": "bool",
          "name": "",
          "type": "bool"
        }
      ],
      "stateMutability": "view",
      "type": "function"
    },
    {
      "inputs": [],
      "name": "symbol",
      "outputs": [
        {
          "internalType": "string",
          "name": "",
          "type": "string"
        }
      ],
      "stateMutability": "view",
      "type": "function"
    },
    {
      "inputs": [
        {
          "internalType": "uint256",
          "name": "index",
          "type": "uint256"
        }
      ],
      "name": "tokenByIndex",
      "outputs": [
        {
          "internalType": "uint256",
          "name": "",
          "type": "uint256"
        }
      ],
      "stateMutability": "view",
      "type": "function"
    },
    {
      "inputs": [
        {
          "internalType": "address",
          "name": "owner",
          "type": "address"
        },
        {
          "internalType": "uint256",
          "name": "index",
          "type": "uint256"
        }
      ],
      "name": "tokenOfOwnerByIndex",
      "outputs": [
        {
          "internalType": "uint256",
          "name": "",
          "type": "uint256"
        }
      ],
      "stateMutability": "view",
      "type": "function"
    },
    {
      "inputs": [
        {
          "internalType": "uint256",
          "name": "_tokenId",
          "type": "uint256"
        }
      ],
      "name": "tokenURI",
      "outputs": [
        {
          "internalType": "string",
          "name": "",
          "type": "string"
        }
      ],
      "stateMutability": "view",
      "type": "function"
    },
    {
      "inputs": [
        {
          "internalType": "address",
          "name": "owner",
          "type": "address"
        }
      ],
      "name": "tokensOfOwner",
      "outputs": [
        {
          "internalType": "uint256[]",
          "name": "",
          "type": "uint256[]"
        }
      ],
      "stateMutability": "view",
      "type": "function"
    },
    {
      "inputs": [],
      "name": "totalSupply",
      "outputs": [
        {
          "internalType": "uint256",
          "name": "",
          "type": "uint256"
        }
      ],
      "stateMutability": "view",
      "type": "function"
    },
    {
      "inputs": [
        {
          "internalType": "address",
          "name": "from",
          "type": "address"
        },
        {
          "internalType": "address",
          "name": "to",
          "type": "address"
        },
        {
          "internalType": "uint256",
          "name": "tokenId",
          "type": "uint256"
        }
      ],
      "name": "transferFrom",
      "outputs": [],
      "stateMutability": "nonpayable",
      "type": "function"
    },
    {
      "inputs": [
        {
          "internalType": "address",
          "name": "newOwner",
          "type": "address"
        }
      ],
      "name": "transferOwnership",
      "outputs": [],
      "stateMutability": "nonpayable",
      "type": "function"
    }
  ],
  "bytecode": "0x60806040523480156200001157600080fd5b50336040518060400160405280600681526020017f41646573736f00000000000000000000000000000000000000000000000000008152506040518060400160405280600381526020017f41445300000000000000000000000000000000000000000000000000000000008152508160009081620000909190620004c9565b508060019081620000a29190620004c9565b505050600073ffffffffffffffffffffffffffffffffffffffff168173ffffffffffffffffffffffffffffffffffffffff16036200011a5760006040517f1e4fbdf7000000000000000000000000000000000000000000000000000000008152600401620001119190620005f5565b60405180910390fd5b6200012b816200018960201b60201c565b5033600b60006101000a81548173ffffffffffffffffffffffffffffffffffffffff021916908373ffffffffffffffffffffffffffffffffffffffff16021790555066038d7ea4c68000600c819055506032600d8190555062000612565b6000600a60009054906101000a900473ffffffffffffffffffffffffffffffffffffffff16905081600a60006101000a81548173ffffffffffffffffffffffffffffffffffffffff021916908373ffffffffffffffffffffffffffffffffffffffff1602179055508173ffffffffffffffffffffffffffffffffffffffff168173ffffffffffffffffffffffffffffffffffffffff167f8be0079c531659141344cd1fd0a4f28419497f9722a3daafe3b4186f6b6457e060405160405180910390a35050565b600081519050919050565b7f4e487b7100000000000000000000000000000000000000000000000000000000600052604160045260246000fd5b7f4e487b7100000000000000000000000000000000000000000000000000000000600052602260045260246000fd5b60006002820490506001821680620002d157607f821691505b602082108103620002e757620002e662000289565b5b50919050565b60008190508160005260206000209050919050565b60006020601f8301049050919050565b600082821b905092915050565b600060088302620003517fffffffffffffffffffffffffffffffffffffffffffffffffffffffffffffffff8262000312565b6200035d868362000312565b95508019841693508086168417925050509392505050565b6000819050919050565b6000819050919050565b6000620003aa620003a46200039e8462000375565b6200037f565b62000375565b9050919050565b6000819050919050565b620003c68362000389565b620003de620003d582620003b1565b8484546200031f565b825550505050565b600090565b620003f5620003e6565b62000402818484620003bb565b505050565b5b818110156200042a576200041e600082620003eb565b60018101905062000408565b5050565b601f82111562000479576200044381620002ed565b6200044e8462000302565b810160208510156200045e578190505b620004766200046d8562000302565b83018262000407565b50505b505050565b600082821c905092915050565b60006200049e600019846008026200047e565b1980831691505092915050565b6000620004b983836200048b565b9150826002028217905092915050565b620004d4826200024f565b67ffffffffffffffff811115620004f057620004ef6200025a565b5b620004fc8254620002b8565b620005098282856200042e565b600060209050601f8311600181146200054157600084156200052c578287015190505b620005388582620004ab565b865550620005a8565b601f1984166200055186620002ed565b60005b828110156200057b5784890151825560018201915060208501945060208101905062000554565b868310156200059b578489015162000597601f8916826200048b565b8355505b6001600288020188555050505b505050505050565b600073ffffffffffffffffffffffffffffffffffffffff82169050919050565b6000620005dd82620005b0565b9050919050565b620005ef81620005d0565b82525050565b60006020820190506200060c6000830184620005e4565b92915050565b61314c80620006226000396000f3fe6080604052600436106101665760003560e01c8063715018a6116100d1578063a22cb4651161008a578063c87b56dd11610064578063c87b56dd14610541578063d5abeb011461057e578063e985e9c5146105a9578063f2fde38b146105e657610166565b8063a22cb465146104c4578063b2bdfa7b146104ed578063b88d4fde1461051857610166565b8063715018a6146103d55780638462151c146103ec5780638da5cb5b1461042957806395652cfa1461045457806395d89b411461047d578063a0712d68146104a857610166565b80632f745c59116101235780632f745c591461028d57806342842e0e146102ca5780634f6ccce7146102f35780636352211e146103305780636817c76c1461036d57806370a082311461039857610166565b806301ffc9a71461016b57806306fdde03146101a8578063081812fc146101d3578063095ea7b31461021057806318160ddd1461023957806323b872dd14610264575b600080fd5b34801561017757600080fd5b50610192600480360381019061018d9190612305565b61060f565b60405161019f919061234d565b60405180910390f35b3480156101b457600080fd5b506101bd610621565b6040516101ca91906123f8565b60405180910390f35b3480156101df57600080fd5b506101fa60048036038101906101f59190612450565b6106b3565b60405161020791906124be565b60405180910390f35b34801561021c57600080fd5b5061023760048036038101906102329190612505565b6106cf565b005b34801561024557600080fd5b5061024e6106e5565b60405161025b9190612554565b60405180910390f35b34801561027057600080fd5b5061028b6004803603810190610286919061256f565b6106f2565b005b34801561029957600080fd5b506102b460048036038101906102af9190612505565b6107f4565b6040516102c19190612554565b60405180910390f35b3480156102d657600080fd5b506102f160048036038101906102ec919061256f565b61089d565b005b3480156102ff57600080fd5b5061031a60048036038101906103159190612450565b6108bd565b6040516103279190612554565b60405180910390f35b34801561033c57600080fd5b5061035760048036038101906103529190612450565b610933565b60405161036491906124be565b60405180910390f35b34801561037957600080fd5b50610382610945565b60405161038f9190612554565b60405180910390f35b3480156103a457600080fd5b506103bf60048036038101906103ba91906125c2565b61094b565b6040516103cc9190612554565b60405180910390f35b3480156103e157600080fd5b506103ea610a05565b005b3480156103f857600080fd5b50610413600480360381019061040e91906125c2565b610a19565b60405161042091906126ad565b60405180910390f35b34801561043557600080fd5b5061043e610b3e565b60405161044b91906124be565b60405180910390f35b34801561046057600080fd5b5061047b60048036038101906104769190612734565b610b68565b005b34801561048957600080fd5b50610492610b86565b60405161049f91906123f8565b60405180910390f35b6104c260048036038101906104bd9190612450565b610c18565b005b3480156104d057600080fd5b506104eb60048036038101906104e691906127ad565b610ca6565b005b3480156104f957600080fd5b50610502610cbc565b60405161050f91906124be565b60405180910390f35b34801561052457600080fd5b5061053f600480360381019061053a919061291d565b610ce2565b005b34801561054d57600080fd5b5061056860048036038101906105639190612450565b610cff565b60405161057591906123f8565b60405180910390f35b34801561058a57600080fd5b50610593610d33565b6040516105a09190612554565b60405180910390f35b3480156105b557600080fd5b506105d060048036038101906105cb91906129a0565b610d39565b6040516105dd919061234d565b60405180910390f35b3480156105f257600080fd5b5061060d600480360381019061060891906125c2565b610dcd565b005b600061061a82610e53565b9050919050565b60606000805461063090612a0f565b80601f016020809104026020016040519081016040528092919081815260200182805461065c90612a0f565b80156106a95780601f1061067e576101008083540402835291602001916106a9565b820191906000526020600020905b81548152906001019060200180831161068c57829003601f168201915b5050505050905090565b60006106be82610ecd565b506106c882610f55565b9050919050565b6106e182826106dc610f92565b610f9a565b5050565b6000600880549050905090565b600073ffffffffffffffffffffffffffffffffffffffff168273ffffffffffffffffffffffffffffffffffffffff16036107645760006040517f64a0ae9200000000000000000000000000000000000000000000000000000000815260040161075b91906124be565b60405180910390fd5b60006107788383610773610f92565b610fac565b90508373ffffffffffffffffffffffffffffffffffffffff168173ffffffffffffffffffffffffffffffffffffffff16146107ee578382826040517f64283d7b0000000000000000000000000000000000000000000000000000000081526004016107e593929190612a40565b60405180910390fd5b50505050565b60006107ff8361094b565b82106108445782826040517fa57d13dc00000000000000000000000000000000000000000000000000000000815260040161083b929190612a77565b60405180910390fd5b600660008473ffffffffffffffffffffffffffffffffffffffff1673ffffffffffffffffffffffffffffffffffffffff168152602001908152602001600020600083815260200190815260200160002054905092915050565b6108b883838360405180602001604052806000815250610ce2565b505050565b60006108c76106e5565b821061090d576000826040517fa57d13dc000000000000000000000000000000000000000000000000000000008152600401610904929190612a77565b60405180910390fd5b6008828154811061092157610920612aa0565b5b90600052602060002001549050919050565b600061093e82610ecd565b9050919050565b600c5481565b60008073ffffffffffffffffffffffffffffffffffffffff168273ffffffffffffffffffffffffffffffffffffffff16036109be5760006040517f89c62b640000000000000000000000000000000000000000000000000000000081526004016109b591906124be565b60405180910390fd5b600360008373ffffffffffffffffffffffffffffffffffffffff1673ffffffffffffffffffffffffffffffffffffffff168152602001908152602001600020549050919050565b610a0d610fc2565b610a176000611049565b565b60606000610a268361094b565b905060008111610a8257600067ffffffffffffffff811115610a4b57610a4a6127f2565b5b604051908082528060200260200182016040528015610a795781602001602082028036833780820191505090505b50915050610b39565b60008167ffffffffffffffff811115610a9e57610a9d6127f2565b5b604051908082528060200260200182016040528015610acc5781602001602082028036833780820191505090505b50905060005b82811015610b3257610b06600b60009054906101000a900473ffffffffffffffffffffffffffffffffffffffff16826107f4565b828281518110610b1957610b18612aa0565b5b6020026020010181815250508080600101915050610ad2565b5080925050505b919050565b6000600a60009054906101000a900473ffffffffffffffffffffffffffffffffffffffff16905090565b610b70610fc2565b8181600e9182610b81929190612c86565b505050565b606060018054610b9590612a0f565b80601f0160208091040260200160405190810160405280929190818152602001828054610bc190612a0f565b8015610c0e5780601f10610be357610100808354040283529160200191610c0e565b820191906000526020600020905b815481529060010190602001808311610bf157829003601f168201915b5050505050905090565b600c5481610c269190612d85565b3414610c67576040517f08c379a0000000000000000000000000000000000000000000000000000000008152600401610c5e90612e13565b60405180910390fd5b60005b81811015610ca25760006001610c7e6106e5565b610c889190612e33565b9050610c94338261110f565b508080600101915050610c6a565b5050565b610cb8610cb1610f92565b838361112d565b5050565b600b60009054906101000a900473ffffffffffffffffffffffffffffffffffffffff1681565b610ced8484846106f2565b610cf98484848461129c565b50505050565b6060600e610d0c83611453565b604051602001610d1d929190612f72565b6040516020818303038152906040529050919050565b600d5481565b6000600560008473ffffffffffffffffffffffffffffffffffffffff1673ffffffffffffffffffffffffffffffffffffffff16815260200190815260200160002060008373ffffffffffffffffffffffffffffffffffffffff1673ffffffffffffffffffffffffffffffffffffffff16815260200190815260200160002060009054906101000a900460ff16905092915050565b610dd5610fc2565b600073ffffffffffffffffffffffffffffffffffffffff168173ffffffffffffffffffffffffffffffffffffffff1603610e475760006040517f1e4fbdf7000000000000000000000000000000000000000000000000000000008152600401610e3e91906124be565b60405180910390fd5b610e5081611049565b50565b60007f780e9d63000000000000000000000000000000000000000000000000000000007bffffffffffffffffffffffffffffffffffffffffffffffffffffffff1916827bffffffffffffffffffffffffffffffffffffffffffffffffffffffff19161480610ec65750610ec582611521565b5b9050919050565b600080610ed983611603565b9050600073ffffffffffffffffffffffffffffffffffffffff168173ffffffffffffffffffffffffffffffffffffffff1603610f4c57826040517f7e273289000000000000000000000000000000000000000000000000000000008152600401610f439190612554565b60405180910390fd5b80915050919050565b60006004600083815260200190815260200160002060009054906101000a900473ffffffffffffffffffffffffffffffffffffffff169050919050565b600033905090565b610fa78383836001611640565b505050565b6000610fb9848484611805565b90509392505050565b610fca610f92565b73ffffffffffffffffffffffffffffffffffffffff16610fe8610b3e565b73ffffffffffffffffffffffffffffffffffffffff16146110475761100b610f92565b6040517f118cdaa700000000000000000000000000000000000000000000000000000000815260040161103e91906124be565b60405180910390fd5b565b6000600a60009054906101000a900473ffffffffffffffffffffffffffffffffffffffff16905081600a60006101000a81548173ffffffffffffffffffffffffffffffffffffffff021916908373ffffffffffffffffffffffffffffffffffffffff1602179055508173ffffffffffffffffffffffffffffffffffffffff168173ffffffffffffffffffffffffffffffffffffffff167f8be0079c531659141344cd1fd0a4f28419497f9722a3daafe3b4186f6b6457e060405160405180910390a35050565b611129828260405180602001604052806000815250611922565b5050565b600073ffffffffffffffffffffffffffffffffffffffff168273ffffffffffffffffffffffffffffffffffffffff160361119e57816040517f5b08ba1800000000000000000000000000000000000000000000000000000000815260040161119591906124be565b60405180910390fd5b80600560008573ffffffffffffffffffffffffffffffffffffffff1673ffffffffffffffffffffffffffffffffffffffff16815260200190815260200160002060008473ffffffffffffffffffffffffffffffffffffffff1673ffffffffffffffffffffffffffffffffffffffff16815260200190815260200160002060006101000a81548160ff0219169083151502179055508173ffffffffffffffffffffffffffffffffffffffff168373ffffffffffffffffffffffffffffffffffffffff167f17307eab39ab6107e8899845ad3d59bd9653f200f220920489ca2b5937696c318360405161128f919061234d565b60405180910390a3505050565b60008373ffffffffffffffffffffffffffffffffffffffff163b111561144d578273ffffffffffffffffffffffffffffffffffffffff1663150b7a026112e0610f92565b8685856040518563ffffffff1660e01b81526004016113029493929190612ff6565b6020604051808303816000875af192505050801561133e57506040513d601f19601f8201168201806040525081019061133b9190613057565b60015b6113c2573d806000811461136e576040519150601f19603f3d011682016040523d82523d6000602084013e611373565b606091505b5060008151036113ba57836040517f64a0ae920000000000000000000000000000000000000000000000000000000081526004016113b191906124be565b60405180910390fd5b805181602001fd5b63150b7a0260e01b7bffffffffffffffffffffffffffffffffffffffffffffffffffffffff1916817bffffffffffffffffffffffffffffffffffffffffffffffffffffffff19161461144b57836040517f64a0ae9200000000000000000000000000000000000000000000000000000000815260040161144291906124be565b60405180910390fd5b505b50505050565b6060600060016114628461193e565b01905060008167ffffffffffffffff811115611481576114806127f2565b5b6040519080825280601f01601f1916602001820160405280156114b35781602001600182028036833780820191505090505b509050600082602001820190505b600115611516578080600190039150507f3031323334353637383961626364656600000000000000000000000000000000600a86061a8153600a858161150a57611509613084565b5b049450600085036114c1575b819350505050919050565b60007f80ac58cd000000000000000000000000000000000000000000000000000000007bffffffffffffffffffffffffffffffffffffffffffffffffffffffff1916827bffffffffffffffffffffffffffffffffffffffffffffffffffffffff191614806115ec57507f5b5e139f000000000000000000000000000000000000000000000000000000007bffffffffffffffffffffffffffffffffffffffffffffffffffffffff1916827bffffffffffffffffffffffffffffffffffffffffffffffffffffffff1916145b806115fc57506115fb82611a91565b5b9050919050565b60006002600083815260200190815260200160002060009054906101000a900473ffffffffffffffffffffffffffffffffffffffff169050919050565b80806116795750600073ffffffffffffffffffffffffffffffffffffffff168273ffffffffffffffffffffffffffffffffffffffff1614155b156117ad57600061168984610ecd565b9050600073ffffffffffffffffffffffffffffffffffffffff168373ffffffffffffffffffffffffffffffffffffffff16141580156116f457508273ffffffffffffffffffffffffffffffffffffffff168173ffffffffffffffffffffffffffffffffffffffff1614155b801561170757506117058184610d39565b155b1561174957826040517fa9fbf51f00000000000000000000000000000000000000000000000000000000815260040161174091906124be565b60405180910390fd5b81156117ab57838573ffffffffffffffffffffffffffffffffffffffff168273ffffffffffffffffffffffffffffffffffffffff167f8c5be1e5ebec7d5bd14f71427d1e84f3dd0314c0f7b2291e5b200ac8c7c3b92560405160405180910390a45b505b836004600085815260200190815260200160002060006101000a81548173ffffffffffffffffffffffffffffffffffffffff021916908373ffffffffffffffffffffffffffffffffffffffff16021790555050505050565b600080611813858585611afb565b9050600073ffffffffffffffffffffffffffffffffffffffff168173ffffffffffffffffffffffffffffffffffffffff16036118575761185284611d15565b611896565b8473ffffffffffffffffffffffffffffffffffffffff168173ffffffffffffffffffffffffffffffffffffffff1614611895576118948185611d5e565b5b5b600073ffffffffffffffffffffffffffffffffffffffff168573ffffffffffffffffffffffffffffffffffffffff16036118d8576118d384611ebf565b611917565b8473ffffffffffffffffffffffffffffffffffffffff168173ffffffffffffffffffffffffffffffffffffffff1614611916576119158585611f90565b5b5b809150509392505050565b61192c838361201b565b611939600084848461129c565b505050565b600080600090507a184f03e93ff9f4daa797ed6e38ed64bf6a1f010000000000000000831061199c577a184f03e93ff9f4daa797ed6e38ed64bf6a1f010000000000000000838161199257611991613084565b5b0492506040810190505b6d04ee2d6d415b85acef810000000083106119d9576d04ee2d6d415b85acef810000000083816119cf576119ce613084565b5b0492506020810190505b662386f26fc100008310611a0857662386f26fc1000083816119fe576119fd613084565b5b0492506010810190505b6305f5e1008310611a31576305f5e1008381611a2757611a26613084565b5b0492506008810190505b6127108310611a56576127108381611a4c57611a4b613084565b5b0492506004810190505b60648310611a795760648381611a6f57611a6e613084565b5b0492506002810190505b600a8310611a88576001810190505b80915050919050565b60007f01ffc9a7000000000000000000000000000000000000000000000000000000007bffffffffffffffffffffffffffffffffffffffffffffffffffffffff1916827bffffffffffffffffffffffffffffffffffffffffffffffffffffffff1916149050919050565b600080611b0784611603565b9050600073ffffffffffffffffffffffffffffffffffffffff168373ffffffffffffffffffffffffffffffffffffffff1614611b4957611b48818486612114565b5b600073ffffffffffffffffffffffffffffffffffffffff168173ffffffffffffffffffffffffffffffffffffffff1614611bda57611b8b600085600080611640565b6001600360008373ffffffffffffffffffffffffffffffffffffffff1673ffffffffffffffffffffffffffffffffffffffff168152602001908152602001600020600082825403925050819055505b600073ffffffffffffffffffffffffffffffffffffffff168573ffffffffffffffffffffffffffffffffffffffff1614611c5d576001600360008773ffffffffffffffffffffffffffffffffffffffff1673ffffffffffffffffffffffffffffffffffffffff168152602001908152602001600020600082825401925050819055505b846002600086815260200190815260200160002060006101000a81548173ffffffffffffffffffffffffffffffffffffffff021916908373ffffffffffffffffffffffffffffffffffffffff160217905550838573ffffffffffffffffffffffffffffffffffffffff168273ffffffffffffffffffffffffffffffffffffffff167fddf252ad1be2c89b69c2b068fc378daa952ba7f163c4a11628f55a4df523b3ef60405160405180910390a4809150509392505050565b6008805490506009600083815260200190815260200160002081905550600881908060018154018082558091505060019003906000526020600020016000909190919091505550565b6000611d698361094b565b9050600060076000848152602001908152602001600020549050818114611e4e576000600660008673ffffffffffffffffffffffffffffffffffffffff1673ffffffffffffffffffffffffffffffffffffffff168152602001908152602001600020600084815260200190815260200160002054905080600660008773ffffffffffffffffffffffffffffffffffffffff1673ffffffffffffffffffffffffffffffffffffffff168152602001908152602001600020600084815260200190815260200160002081905550816007600083815260200190815260200160002081905550505b6007600084815260200190815260200160002060009055600660008573ffffffffffffffffffffffffffffffffffffffff1673ffffffffffffffffffffffffffffffffffffffff16815260200190815260200160002060008381526020019081526020016000206000905550505050565b60006001600880549050611ed391906130b3565b9050600060096000848152602001908152602001600020549050600060088381548110611f0357611f02612aa0565b5b906000526020600020015490508060088381548110611f2557611f24612aa0565b5b906000526020600020018190555081600960008381526020019081526020016000208190555060096000858152602001908152602001600020600090556008805480611f7457611f736130e7565b5b6001900381819060005260206000200160009055905550505050565b60006001611f9d8461094b565b611fa791906130b3565b905081600660008573ffffffffffffffffffffffffffffffffffffffff1673ffffffffffffffffffffffffffffffffffffffff168152602001908152602001600020600083815260200190815260200160002081905550806007600084815260200190815260200160002081905550505050565b600073ffffffffffffffffffffffffffffffffffffffff168273ffffffffffffffffffffffffffffffffffffffff160361208d5760006040517f64a0ae9200000000000000000000000000000000000000000000000000000000815260040161208491906124be565b60405180910390fd5b600061209b83836000610fac565b9050600073ffffffffffffffffffffffffffffffffffffffff168173ffffffffffffffffffffffffffffffffffffffff161461210f5760006040517f73c6ac6e00000000000000000000000000000000000000000000000000000000815260040161210691906124be565b60405180910390fd5b505050565b61211f8383836121d8565b6121d357600073ffffffffffffffffffffffffffffffffffffffff168373ffffffffffffffffffffffffffffffffffffffff160361219457806040517f7e27328900000000000000000000000000000000000000000000000000000000815260040161218b9190612554565b60405180910390fd5b81816040517f177e802f0000000000000000000000000000000000000000000000000000000081526004016121ca929190612a77565b60405180910390fd5b505050565b60008073ffffffffffffffffffffffffffffffffffffffff168373ffffffffffffffffffffffffffffffffffffffff161415801561229057508273ffffffffffffffffffffffffffffffffffffffff168473ffffffffffffffffffffffffffffffffffffffff16148061225157506122508484610d39565b5b8061228f57508273ffffffffffffffffffffffffffffffffffffffff1661227783610f55565b73ffffffffffffffffffffffffffffffffffffffff16145b5b90509392505050565b6000604051905090565b600080fd5b600080fd5b60007fffffffff0000000000000000000000000000000000000000000000000000000082169050919050565b6122e2816122ad565b81146122ed57600080fd5b50565b6000813590506122ff816122d9565b92915050565b60006020828403121561231b5761231a6122a3565b5b6000612329848285016122f0565b91505092915050565b60008115159050919050565b61234781612332565b82525050565b6000602082019050612362600083018461233e565b92915050565b600081519050919050565b600082825260208201905092915050565b60005b838110156123a2578082015181840152602081019050612387565b60008484015250505050565b6000601f19601f8301169050919050565b60006123ca82612368565b6123d48185612373565b93506123e4818560208601612384565b6123ed816123ae565b840191505092915050565b6000602082019050818103600083015261241281846123bf565b905092915050565b6000819050919050565b61242d8161241a565b811461243857600080fd5b50565b60008135905061244a81612424565b92915050565b600060208284031215612466576124656122a3565b5b60006124748482850161243b565b91505092915050565b600073ffffffffffffffffffffffffffffffffffffffff82169050919050565b60006124a88261247d565b9050919050565b6124b88161249d565b82525050565b60006020820190506124d360008301846124af565b92915050565b6124e28161249d565b81146124ed57600080fd5b50565b6000813590506124ff816124d9565b92915050565b6000806040838503121561251c5761251b6122a3565b5b600061252a858286016124f0565b925050602061253b8582860161243b565b9150509250929050565b61254e8161241a565b82525050565b60006020820190506125696000830184612545565b92915050565b600080600060608486031215612588576125876122a3565b5b6000612596868287016124f0565b93505060206125a7868287016124f0565b92505060406125b88682870161243b565b9150509250925092565b6000602082840312156125d8576125d76122a3565b5b60006125e6848285016124f0565b91505092915050565b600081519050919050565b600082825260208201905092915050565b6000819050602082019050919050565b6126248161241a565b82525050565b6000612636838361261b565b60208301905092915050565b6000602082019050919050565b600061265a826125ef565b61266481856125fa565b935061266f8361260b565b8060005b838110156126a0578151612687888261262a565b975061269283612642565b925050600181019050612673565b5085935050505092915050565b600060208201905081810360008301526126c7818461264f565b905092915050565b600080fd5b600080fd5b600080fd5b60008083601f8401126126f4576126f36126cf565b5b8235905067ffffffffffffffff811115612711576127106126d4565b5b60208301915083600182028301111561272d5761272c6126d9565b5b9250929050565b6000806020838503121561274b5761274a6122a3565b5b600083013567ffffffffffffffff811115612769576127686122a8565b5b612775858286016126de565b92509250509250929050565b61278a81612332565b811461279557600080fd5b50565b6000813590506127a781612781565b92915050565b600080604083850312156127c4576127c36122a3565b5b60006127d2858286016124f0565b92505060206127e385828601612798565b9150509250929050565b600080fd5b7f4e487b7100000000000000000000000000000000000000000000000000000000600052604160045260246000fd5b61282a826123ae565b810181811067ffffffffffffffff82111715612849576128486127f2565b5b80604052505050565b600061285c612299565b90506128688282612821565b919050565b600067ffffffffffffffff821115612888576128876127f2565b5b612891826123ae565b9050602081019050919050565b82818337600083830152505050565b60006128c06128bb8461286d565b612852565b9050828152602081018484840111156128dc576128db6127ed565b5b6128e784828561289e565b509392505050565b600082601f830112612904576129036126cf565b5b81356129148482602086016128ad565b91505092915050565b60008060008060808587031215612937576129366122a3565b5b6000612945878288016124f0565b9450506020612956878288016124f0565b93505060406129678782880161243b565b925050606085013567ffffffffffffffff811115612988576129876122a8565b5b612994878288016128ef565b91505092959194509250565b600080604083850312156129b7576129b66122a3565b5b60006129c5858286016124f0565b92505060206129d6858286016124f0565b9150509250929050565b7f4e487b7100000000000000000000000000000000000000000000000000000000600052602260045260246000fd5b60006002820490506001821680612a2757607f821691505b602082108103612a3a57612a396129e0565b5b50919050565b6000606082019050612a5560008301866124af565b612a626020830185612545565b612a6f60408301846124af565b949350505050565b6000604082019050612a8c60008301856124af565b612a996020830184612545565b9392505050565b7f4e487b7100000000000000000000000000000000000000000000000000000000600052603260045260246000fd5b600082905092915050565b60008190508160005260206000209050919050565b60006020601f8301049050919050565b600082821b905092915050565b600060088302612b3c7fffffffffffffffffffffffffffffffffffffffffffffffffffffffffffffffff82612aff565b612b468683612aff565b95508019841693508086168417925050509392505050565b6000819050919050565b6000612b83612b7e612b798461241a565b612b5e565b61241a565b9050919050565b6000819050919050565b612b9d83612b68565b612bb1612ba982612b8a565b848454612b0c565b825550505050565b600090565b612bc6612bb9565b612bd1818484612b94565b505050565b5b81811015612bf557612bea600082612bbe565b600181019050612bd7565b5050565b601f821115612c3a57612c0b81612ada565b612c1484612aef565b81016020851015612c23578190505b612c37612c2f85612aef565b830182612bd6565b50505b505050565b600082821c905092915050565b6000612c5d60001984600802612c3f565b1980831691505092915050565b6000612c768383612c4c565b9150826002028217905092915050565b612c908383612acf565b67ffffffffffffffff811115612ca957612ca86127f2565b5b612cb38254612a0f565b612cbe828285612bf9565b6000601f831160018114612ced5760008415612cdb578287013590505b612ce58582612c6a565b865550612d4d565b601f198416612cfb86612ada565b60005b82811015612d2357848901358255600182019150602085019450602081019050612cfe565b86831015612d405784890135612d3c601f891682612c4c565b8355505b6001600288020188555050505b50505050505050565b7f4e487b7100000000000000000000000000000000000000000000000000000000600052601160045260246000fd5b6000612d908261241a565b9150612d9b8361241a565b9250828202612da98161241a565b91508282048414831517612dc057612dbf612d56565b5b5092915050565b7f596f752068617665206e6f7420656e6f756768206d6f6e657921000000000000600082015250565b6000612dfd601a83612373565b9150612e0882612dc7565b602082019050919050565b60006020820190508181036000830152612e2c81612df0565b9050919050565b6000612e3e8261241a565b9150612e498361241a565b9250828201905080821115612e6157612e60612d56565b5b92915050565b600081905092915050565b60008154612e7f81612a0f565b612e898186612e67565b94506001821660008114612ea45760018114612eb957612eec565b60ff1983168652811515820286019350612eec565b612ec285612ada565b60005b83811015612ee457815481890152600182019150602081019050612ec5565b838801955050505b50505092915050565b6000612f0082612368565b612f0a8185612e67565b9350612f1a818560208601612384565b80840191505092915050565b7f2e6a736f6e000000000000000000000000000000000000000000000000000000600082015250565b6000612f5c600583612e67565b9150612f6782612f26565b600582019050919050565b6000612f7e8285612e72565b9150612f8a8284612ef5565b9150612f9582612f4f565b91508190509392505050565b600081519050919050565b600082825260208201905092915050565b6000612fc882612fa1565b612fd28185612fac565b9350612fe2818560208601612384565b612feb816123ae565b840191505092915050565b600060808201905061300b60008301876124af565b61301860208301866124af565b6130256040830185612545565b81810360608301526130378184612fbd565b905095945050505050565b600081519050613051816122d9565b92915050565b60006020828403121561306d5761306c6122a3565b5b600061307b84828501613042565b91505092915050565b7f4e487b7100000000000000000000000000000000000000000000000000000000600052601260045260246000fd5b60006130be8261241a565b91506130c98361241a565b92508282039050818111156130e1576130e0612d56565b5b92915050565b7f4e487b7100000000000000000000000000000000000000000000000000000000600052603160045260246000fdfea26469706673582212209a453337ba6626ba69d3f2559ed0951c1b744e6ab97b971c6cc40a0b7cc39ac264736f6c63430008170033",
  "linkReferences": {},
  "deployedLinkReferences": {}
}