{
  "_format": "hh-sol-artifact-1",
  "contractName": "AdessoOKR",
  "sourceName": "contracts/AdessoOKR.sol",
  "abi": [
    {
      "inputs": [
        {
          "internalType": "address",
          "name": "initialOwner",
          "type": "address"
        }
      ],
      "stateMutability": "nonpayable",
      "type": "constructor"
    },
    {
      "inputs": [],
      "name": "ERC721EnumerableForbiddenBatchMint",
      "type": "error"
    },
    {
      "inputs": [
        {
          "internalType": "address",
          "name": "sender",
          "type": "address"
        },
        {
          "internalType": "uint256",
          "name": "tokenId",
          "type": "uint256"
        },
        {
          "internalType": "address",
          "name": "owner",
          "type": "address"
        }
      ],
      "name": "ERC721IncorrectOwner",
      "type": "error"
    },
    {
      "inputs": [
        {
          "internalType": "address",
          "name": "operator",
          "type": "address"
        },
        {
          "internalType": "uint256",
          "name": "tokenId",
          "type": "uint256"
        }
      ],
      "name": "ERC721InsufficientApproval",
      "type": "error"
    },
    {
      "inputs": [
        {
          "internalType": "address",
          "name": "approver",
          "type": "address"
        }
      ],
      "name": "ERC721InvalidApprover",
      "type": "error"
    },
    {
      "inputs": [
        {
          "internalType": "address",
          "name": "operator",
          "type": "address"
        }
      ],
      "name": "ERC721InvalidOperator",
      "type": "error"
    },
    {
      "inputs": [
        {
          "internalType": "address",
          "name": "owner",
          "type": "address"
        }
      ],
      "name": "ERC721InvalidOwner",
      "type": "error"
    },
    {
      "inputs": [
        {
          "internalType": "address",
          "name": "receiver",
          "type": "address"
        }
      ],
      "name": "ERC721InvalidReceiver",
      "type": "error"
    },
    {
      "inputs": [
        {
          "internalType": "address",
          "name": "sender",
          "type": "address"
        }
      ],
      "name": "ERC721InvalidSender",
      "type": "error"
    },
    {
      "inputs": [
        {
          "internalType": "uint256",
          "name": "tokenId",
          "type": "uint256"
        }
      ],
      "name": "ERC721NonexistentToken",
      "type": "error"
    },
    {
      "inputs": [
        {
          "internalType": "address",
          "name": "owner",
          "type": "address"
        },
        {
          "internalType": "uint256",
          "name": "index",
          "type": "uint256"
        }
      ],
      "name": "ERC721OutOfBoundsIndex",
      "type": "error"
    },
    {
      "inputs": [
        {
          "internalType": "address",
          "name": "owner",
          "type": "address"
        }
      ],
      "name": "OwnableInvalidOwner",
      "type": "error"
    },
    {
      "inputs": [
        {
          "internalType": "address",
          "name": "account",
          "type": "address"
        }
      ],
      "name": "OwnableUnauthorizedAccount",
      "type": "error"
    },
    {
      "anonymous": false,
      "inputs": [
        {
          "indexed": true,
          "internalType": "address",
          "name": "owner",
          "type": "address"
        },
        {
          "indexed": true,
          "internalType": "address",
          "name": "approved",
          "type": "address"
        },
        {
          "indexed": true,
          "internalType": "uint256",
          "name": "tokenId",
          "type": "uint256"
        }
      ],
      "name": "Approval",
      "type": "event"
    },
    {
      "anonymous": false,
      "inputs": [
        {
          "indexed": true,
          "internalType": "address",
          "name": "owner",
          "type": "address"
        },
        {
          "indexed": true,
          "internalType": "address",
          "name": "operator",
          "type": "address"
        },
        {
          "indexed": false,
          "internalType": "bool",
          "name": "approved",
          "type": "bool"
        }
      ],
      "name": "ApprovalForAll",
      "type": "event"
    },
    {
      "anonymous": false,
      "inputs": [
        {
          "indexed": true,
          "internalType": "address",
          "name": "previousOwner",
          "type": "address"
        },
        {
          "indexed": true,
          "internalType": "address",
          "name": "newOwner",
          "type": "address"
        }
      ],
      "name": "OwnershipTransferred",
      "type": "event"
    },
    {
      "anonymous": false,
      "inputs": [
        {
          "indexed": true,
          "internalType": "address",
          "name": "from",
          "type": "address"
        },
        {
          "indexed": true,
          "internalType": "address",
          "name": "to",
          "type": "address"
        },
        {
          "indexed": true,
          "internalType": "uint256",
          "name": "tokenId",
          "type": "uint256"
        }
      ],
      "name": "Transfer",
      "type": "event"
    },
    {
      "inputs": [],
      "name": "_owner",
      "outputs": [
        {
          "internalType": "address",
          "name": "",
          "type": "address"
        }
      ],
      "stateMutability": "view",
      "type": "function"
    },
    {
      "inputs": [
        {
          "internalType": "address",
          "name": "to",
          "type": "address"
        },
        {
          "internalType": "uint256",
          "name": "tokenId",
          "type": "uint256"
        }
      ],
      "name": "approve",
      "outputs": [],
      "stateMutability": "nonpayable",
      "type": "function"
    },
    {
      "inputs": [
        {
          "internalType": "address",
          "name": "owner",
          "type": "address"
        }
      ],
      "name": "balanceOf",
      "outputs": [
        {
          "internalType": "uint256",
          "name": "",
          "type": "uint256"
        }
      ],
      "stateMutability": "view",
      "type": "function"
    },
    {
      "inputs": [
        {
          "internalType": "uint256",
          "name": "tokenId",
          "type": "uint256"
        }
      ],
      "name": "getApproved",
      "outputs": [
        {
          "internalType": "address",
          "name": "",
          "type": "address"
        }
      ],
      "stateMutability": "view",
      "type": "function"
    },
    {
      "inputs": [
        {
          "internalType": "address",
          "name": "owner",
          "type": "address"
        },
        {
          "internalType": "address",
          "name": "operator",
          "type": "address"
        }
      ],
      "name": "isApprovedForAll",
      "outputs": [
        {
          "internalType": "bool",
          "name": "",
          "type": "bool"
        }
      ],
      "stateMutability": "view",
      "type": "function"
    },
    {
      "inputs": [],
      "name": "maxSupply",
      "outputs": [
        {
          "internalType": "uint256",
          "name": "",
          "type": "uint256"
        }
      ],
      "stateMutability": "view",
      "type": "function"
    },
    {
      "inputs": [
        {
          "internalType": "uint256",
          "name": "_quantity",
          "type": "uint256"
        }
      ],
      "name": "mint",
      "outputs": [],
      "stateMutability": "payable",
      "type": "function"
    },
    {
      "inputs": [],
      "name": "mintPrice",
      "outputs": [
        {
          "internalType": "uint256",
          "name": "",
          "type": "uint256"
        }
      ],
      "stateMutability": "view",
      "type": "function"
    },
    {
      "inputs": [],
      "name": "name",
      "outputs": [
        {
          "internalType": "string",
          "name": "",
          "type": "string"
        }
      ],
      "stateMutability": "view",
      "type": "function"
    },
    {
      "inputs": [],
      "name": "owner",
      "outputs": [
        {
          "internalType": "address",
          "name": "",
          "type": "address"
        }
      ],
      "stateMutability": "view",
      "type": "function"
    },
    {
      "inputs": [
        {
          "internalType": "uint256",
          "name": "tokenId",
          "type": "uint256"
        }
      ],
      "name": "ownerOf",
      "outputs": [
        {
          "internalType": "address",
          "name": "",
          "type": "address"
        }
      ],
      "stateMutability": "view",
      "type": "function"
    },
    {
      "inputs": [],
      "name": "renounceOwnership",
      "outputs": [],
      "stateMutability": "nonpayable",
      "type": "function"
    },
    {
      "inputs": [
        {
          "internalType": "address",
          "name": "from",
          "type": "address"
        },
        {
          "internalType": "address",
          "name": "to",
          "type": "address"
        },
        {
          "internalType": "uint256",
          "name": "tokenId",
          "type": "uint256"
        }
      ],
      "name": "safeTransferFrom",
      "outputs": [],
      "stateMutability": "nonpayable",
      "type": "function"
    },
    {
      "inputs": [
        {
          "internalType": "address",
          "name": "from",
          "type": "address"
        },
        {
          "internalType": "address",
          "name": "to",
          "type": "address"
        },
        {
          "internalType": "uint256",
          "name": "tokenId",
          "type": "uint256"
        },
        {
          "internalType": "bytes",
          "name": "data",
          "type": "bytes"
        }
      ],
      "name": "safeTransferFrom",
      "outputs": [],
      "stateMutability": "nonpayable",
      "type": "function"
    },
    {
      "inputs": [
        {
          "internalType": "address",
          "name": "operator",
          "type": "address"
        },
        {
          "internalType": "bool",
          "name": "approved",
          "type": "bool"
        }
      ],
      "name": "setApprovalForAll",
      "outputs": [],
      "stateMutability": "nonpayable",
      "type": "function"
    },
    {
      "inputs": [
        {
          "internalType": "string",
          "name": "_baseTokenUri",
          "type": "string"
        }
      ],
      "name": "setBaseTokenUri",
      "outputs": [],
      "stateMutability": "nonpayable",
      "type": "function"
    },
    {
      "inputs": [
        {
          "internalType": "bytes4",
          "name": "interfaceId",
          "type": "bytes4"
        }
      ],
      "name": "supportsInterface",
      "outputs": [
        {
          "internalType": "bool",
          "name": "",
          "type": "bool"
        }
      ],
      "stateMutability": "view",
      "type": "function"
    },
    {
      "inputs": [],
      "name": "symbol",
      "outputs": [
        {
          "internalType": "string",
          "name": "",
          "type": "string"
        }
      ],
      "stateMutability": "view",
      "type": "function"
    },
    {
      "inputs": [
        {
          "internalType": "uint256",
          "name": "index",
          "type": "uint256"
        }
      ],
      "name": "tokenByIndex",
      "outputs": [
        {
          "internalType": "uint256",
          "name": "",
          "type": "uint256"
        }
      ],
      "stateMutability": "view",
      "type": "function"
    },
    {
      "inputs": [
        {
          "internalType": "address",
          "name": "owner",
          "type": "address"
        },
        {
          "internalType": "uint256",
          "name": "index",
          "type": "uint256"
        }
      ],
      "name": "tokenOfOwnerByIndex",
      "outputs": [
        {
          "internalType": "uint256",
          "name": "",
          "type": "uint256"
        }
      ],
      "stateMutability": "view",
      "type": "function"
    },
    {
      "inputs": [
        {
          "internalType": "uint256",
          "name": "_tokenId",
          "type": "uint256"
        }
      ],
      "name": "tokenURI",
      "outputs": [
        {
          "internalType": "string",
          "name": "",
          "type": "string"
        }
      ],
      "stateMutability": "view",
      "type": "function"
    },
    {
      "inputs": [
        {
          "internalType": "address",
          "name": "owner",
          "type": "address"
        }
      ],
      "name": "tokensOfOwner",
      "outputs": [
        {
          "internalType": "uint256[]",
          "name": "",
          "type": "uint256[]"
        }
      ],
      "stateMutability": "view",
      "type": "function"
    },
    {
      "inputs": [],
      "name": "totalSupply",
      "outputs": [
        {
          "internalType": "uint256",
          "name": "",
          "type": "uint256"
        }
      ],
      "stateMutability": "view",
      "type": "function"
    },
    {
      "inputs": [
        {
          "internalType": "address",
          "name": "from",
          "type": "address"
        },
        {
          "internalType": "address",
          "name": "to",
          "type": "address"
        },
        {
          "internalType": "uint256",
          "name": "tokenId",
          "type": "uint256"
        }
      ],
      "name": "transferFrom",
      "outputs": [],
      "stateMutability": "nonpayable",
      "type": "function"
    },
    {
      "inputs": [
        {
          "internalType": "address",
          "name": "newOwner",
          "type": "address"
        }
      ],
      "name": "transferOwnership",
      "outputs": [],
      "stateMutability": "nonpayable",
      "type": "function"
    },
    {
      "inputs": [
        {
          "internalType": "address",
          "name": "",
          "type": "address"
        }
      ],
      "name": "walletMints",
      "outputs": [
        {
          "internalType": "uint256",
          "name": "",
          "type": "uint256"
        }
      ],
      "stateMutability": "view",
      "type": "function"
    }
  ],
  "bytecode": "0x60806040523480156200001157600080fd5b506040516200397e3803806200397e8339818101604052810190620000379190620002df565b806040518060400160405280600981526020017f41646573736f4f4b5200000000000000000000000000000000000000000000008152506040518060400160405280600381526020017f4f4b5200000000000000000000000000000000000000000000000000000000008152508160009081620000b591906200058b565b508060019081620000c791906200058b565b505050600073ffffffffffffffffffffffffffffffffffffffff168173ffffffffffffffffffffffffffffffffffffffff16036200013f5760006040517f1e4fbdf700000000000000000000000000000000000000000000000000000000815260040162000136919062000683565b60405180910390fd5b6200015081620001af60201b60201c565b5080600b60006101000a81548173ffffffffffffffffffffffffffffffffffffffff021916908373ffffffffffffffffffffffffffffffffffffffff16021790555066038d7ea4c68000600c819055506032600d8190555050620006a0565b6000600a60009054906101000a900473ffffffffffffffffffffffffffffffffffffffff16905081600a60006101000a81548173ffffffffffffffffffffffffffffffffffffffff021916908373ffffffffffffffffffffffffffffffffffffffff1602179055508173ffffffffffffffffffffffffffffffffffffffff168173ffffffffffffffffffffffffffffffffffffffff167f8be0079c531659141344cd1fd0a4f28419497f9722a3daafe3b4186f6b6457e060405160405180910390a35050565b600080fd5b600073ffffffffffffffffffffffffffffffffffffffff82169050919050565b6000620002a7826200027a565b9050919050565b620002b9816200029a565b8114620002c557600080fd5b50565b600081519050620002d981620002ae565b92915050565b600060208284031215620002f857620002f762000275565b5b60006200030884828501620002c8565b91505092915050565b600081519050919050565b7f4e487b7100000000000000000000000000000000000000000000000000000000600052604160045260246000fd5b7f4e487b7100000000000000000000000000000000000000000000000000000000600052602260045260246000fd5b600060028204905060018216806200039357607f821691505b602082108103620003a957620003a86200034b565b5b50919050565b60008190508160005260206000209050919050565b60006020601f8301049050919050565b600082821b905092915050565b600060088302620004137fffffffffffffffffffffffffffffffffffffffffffffffffffffffffffffffff82620003d4565b6200041f8683620003d4565b95508019841693508086168417925050509392505050565b6000819050919050565b6000819050919050565b60006200046c62000466620004608462000437565b62000441565b62000437565b9050919050565b6000819050919050565b62000488836200044b565b620004a0620004978262000473565b848454620003e1565b825550505050565b600090565b620004b7620004a8565b620004c48184846200047d565b505050565b5b81811015620004ec57620004e0600082620004ad565b600181019050620004ca565b5050565b601f8211156200053b576200050581620003af565b6200051084620003c4565b8101602085101562000520578190505b620005386200052f85620003c4565b830182620004c9565b50505b505050565b600082821c905092915050565b6000620005606000198460080262000540565b1980831691505092915050565b60006200057b83836200054d565b9150826002028217905092915050565b620005968262000311565b67ffffffffffffffff811115620005b257620005b16200031c565b5b620005be82546200037a565b620005cb828285620004f0565b600060209050601f831160018114620006035760008415620005ee578287015190505b620005fa85826200056d565b8655506200066a565b601f1984166200061386620003af565b60005b828110156200063d5784890151825560018201915060208501945060208101905062000616565b868310156200065d578489015162000659601f8916826200054d565b8355505b6001600288020188555050505b505050505050565b6200067d816200029a565b82525050565b60006020820190506200069a600083018462000672565b92915050565b6132ce80620006b06000396000f3fe6080604052600436106101815760003560e01c80638462151c116100d1578063b2bdfa7b1161008a578063d5abeb0111610064578063d5abeb0114610599578063e985e9c5146105c4578063f0293fd314610601578063f2fde38b1461063e57610181565b8063b2bdfa7b14610508578063b88d4fde14610533578063c87b56dd1461055c57610181565b80638462151c146104075780638da5cb5b1461044457806395652cfa1461046f57806395d89b4114610498578063a0712d68146104c3578063a22cb465146104df57610181565b80632f745c591161013e5780636352211e116101185780636352211e1461034b5780636817c76c1461038857806370a08231146103b3578063715018a6146103f057610181565b80632f745c59146102a857806342842e0e146102e55780634f6ccce71461030e57610181565b806301ffc9a71461018657806306fdde03146101c3578063081812fc146101ee578063095ea7b31461022b57806318160ddd1461025457806323b872dd1461027f575b600080fd5b34801561019257600080fd5b506101ad60048036038101906101a8919061243f565b610667565b6040516101ba9190612487565b60405180910390f35b3480156101cf57600080fd5b506101d8610679565b6040516101e59190612532565b60405180910390f35b3480156101fa57600080fd5b506102156004803603810190610210919061258a565b61070b565b60405161022291906125f8565b60405180910390f35b34801561023757600080fd5b50610252600480360381019061024d919061263f565b610727565b005b34801561026057600080fd5b5061026961073d565b604051610276919061268e565b60405180910390f35b34801561028b57600080fd5b506102a660048036038101906102a191906126a9565b61074a565b005b3480156102b457600080fd5b506102cf60048036038101906102ca919061263f565b6107b1565b6040516102dc919061268e565b60405180910390f35b3480156102f157600080fd5b5061030c600480360381019061030791906126a9565b61085a565b005b34801561031a57600080fd5b506103356004803603810190610330919061258a565b61087a565b604051610342919061268e565b60405180910390f35b34801561035757600080fd5b50610372600480360381019061036d919061258a565b6108f0565b60405161037f91906125f8565b60405180910390f35b34801561039457600080fd5b5061039d610902565b6040516103aa919061268e565b60405180910390f35b3480156103bf57600080fd5b506103da60048036038101906103d591906126fc565b610908565b6040516103e7919061268e565b60405180910390f35b3480156103fc57600080fd5b506104056109c2565b005b34801561041357600080fd5b5061042e600480360381019061042991906126fc565b6109d6565b60405161043b91906127e7565b60405180910390f35b34801561045057600080fd5b50610459610b01565b60405161046691906125f8565b60405180910390f35b34801561047b57600080fd5b506104966004803603810190610491919061286e565b610b2b565b005b3480156104a457600080fd5b506104ad610b49565b6040516104ba9190612532565b60405180910390f35b6104dd60048036038101906104d8919061258a565b610bdb565b005b3480156104eb57600080fd5b50610506600480360381019061050191906128e7565b610cc6565b005b34801561051457600080fd5b5061051d610cdc565b60405161052a91906125f8565b60405180910390f35b34801561053f57600080fd5b5061055a60048036038101906105559190612a57565b610d02565b005b34801561056857600080fd5b50610583600480360381019061057e919061258a565b610d1f565b6040516105909190612532565b60405180910390f35b3480156105a557600080fd5b506105ae610d53565b6040516105bb919061268e565b60405180910390f35b3480156105d057600080fd5b506105eb60048036038101906105e69190612ada565b610d59565b6040516105f89190612487565b60405180910390f35b34801561060d57600080fd5b50610628600480360381019061062391906126fc565b610ded565b604051610635919061268e565b60405180910390f35b34801561064a57600080fd5b50610665600480360381019061066091906126fc565b610e05565b005b600061067282610e8b565b9050919050565b60606000805461068890612b49565b80601f01602080910402602001604051908101604052809291908181526020018280546106b490612b49565b80156107015780601f106106d657610100808354040283529160200191610701565b820191906000526020600020905b8154815290600101906020018083116106e457829003601f168201915b5050505050905090565b600061071682610f05565b5061072082610f8d565b9050919050565b6107398282610734610fca565b610fd2565b5050565b6000600880549050905090565b6001600f60003373ffffffffffffffffffffffffffffffffffffffff1673ffffffffffffffffffffffffffffffffffffffff168152602001908152602001600020600082825461079a9190612ba9565b925050819055506107ac838383610fe4565b505050565b60006107bc83610908565b82106108015782826040517fa57d13dc0000000000000000000000000000000000000000000000000000000081526004016107f8929190612bdd565b60405180910390fd5b600660008473ffffffffffffffffffffffffffffffffffffffff1673ffffffffffffffffffffffffffffffffffffffff168152602001908152602001600020600083815260200190815260200160002054905092915050565b61087583838360405180602001604052806000815250610d02565b505050565b600061088461073d565b82106108ca576000826040517fa57d13dc0000000000000000000000000000000000000000000000000000000081526004016108c1929190612bdd565b60405180910390fd5b600882815481106108de576108dd612c06565b5b90600052602060002001549050919050565b60006108fb82610f05565b9050919050565b600c5481565b60008073ffffffffffffffffffffffffffffffffffffffff168273ffffffffffffffffffffffffffffffffffffffff160361097b5760006040517f89c62b6400000000000000000000000000000000000000000000000000000000815260040161097291906125f8565b60405180910390fd5b600360008373ffffffffffffffffffffffffffffffffffffffff1673ffffffffffffffffffffffffffffffffffffffff168152602001908152602001600020549050919050565b6109ca6110e6565b6109d4600061116d565b565b606060006109e383610908565b905060008111610a3f57600067ffffffffffffffff811115610a0857610a0761292c565b5b604051908082528060200260200182016040528015610a365781602001602082028036833780820191505090505b50915050610afc565b60008167ffffffffffffffff811115610a5b57610a5a61292c565b5b604051908082528060200260200182016040528015610a895781602001602082028036833780820191505090505b50905060005b82811015610af557610ac3600b60009054906101000a900473ffffffffffffffffffffffffffffffffffffffff16826107b1565b828281518110610ad657610ad5612c06565b5b6020026020010181815250508080610aed90612c35565b915050610a8f565b5080925050505b919050565b6000600a60009054906101000a900473ffffffffffffffffffffffffffffffffffffffff16905090565b610b336110e6565b8181600e9182610b44929190612e34565b505050565b606060018054610b5890612b49565b80601f0160208091040260200160405190810160405280929190818152602001828054610b8490612b49565b8015610bd15780601f10610ba657610100808354040283529160200191610bd1565b820191906000526020600020905b815481529060010190602001808311610bb457829003601f168201915b5050505050905090565b600c5481610be99190612f04565b3414610c2a576040517f08c379a0000000000000000000000000000000000000000000000000000000008152600401610c2190612f92565b60405180910390fd5b60005b81811015610cc25760006001610c4161073d565b610c4b9190612fb2565b9050610c573382611233565b6001600f60003373ffffffffffffffffffffffffffffffffffffffff1673ffffffffffffffffffffffffffffffffffffffff1681526020019081526020016000206000828254610ca79190612fb2565b92505081905550508080610cba90612c35565b915050610c2d565b5050565b610cd8610cd1610fca565b8383611251565b5050565b600b60009054906101000a900473ffffffffffffffffffffffffffffffffffffffff1681565b610d0d84848461074a565b610d19848484846113c0565b50505050565b6060600e610d2c83611577565b604051602001610d3d9291906130f1565b6040516020818303038152906040529050919050565b600d5481565b6000600560008473ffffffffffffffffffffffffffffffffffffffff1673ffffffffffffffffffffffffffffffffffffffff16815260200190815260200160002060008373ffffffffffffffffffffffffffffffffffffffff1673ffffffffffffffffffffffffffffffffffffffff16815260200190815260200160002060009054906101000a900460ff16905092915050565b600f6020528060005260406000206000915090505481565b610e0d6110e6565b600073ffffffffffffffffffffffffffffffffffffffff168173ffffffffffffffffffffffffffffffffffffffff1603610e7f5760006040517f1e4fbdf7000000000000000000000000000000000000000000000000000000008152600401610e7691906125f8565b60405180910390fd5b610e888161116d565b50565b60007f780e9d63000000000000000000000000000000000000000000000000000000007bffffffffffffffffffffffffffffffffffffffffffffffffffffffff1916827bffffffffffffffffffffffffffffffffffffffffffffffffffffffff19161480610efe5750610efd82611645565b5b9050919050565b600080610f1183611727565b9050600073ffffffffffffffffffffffffffffffffffffffff168173ffffffffffffffffffffffffffffffffffffffff1603610f8457826040517f7e273289000000000000000000000000000000000000000000000000000000008152600401610f7b919061268e565b60405180910390fd5b80915050919050565b60006004600083815260200190815260200160002060009054906101000a900473ffffffffffffffffffffffffffffffffffffffff169050919050565b600033905090565b610fdf8383836001611764565b505050565b600073ffffffffffffffffffffffffffffffffffffffff168273ffffffffffffffffffffffffffffffffffffffff16036110565760006040517f64a0ae9200000000000000000000000000000000000000000000000000000000815260040161104d91906125f8565b60405180910390fd5b600061106a8383611065610fca565b611929565b90508373ffffffffffffffffffffffffffffffffffffffff168173ffffffffffffffffffffffffffffffffffffffff16146110e0578382826040517f64283d7b0000000000000000000000000000000000000000000000000000000081526004016110d793929190613120565b60405180910390fd5b50505050565b6110ee610fca565b73ffffffffffffffffffffffffffffffffffffffff1661110c610b01565b73ffffffffffffffffffffffffffffffffffffffff161461116b5761112f610fca565b6040517f118cdaa700000000000000000000000000000000000000000000000000000000815260040161116291906125f8565b60405180910390fd5b565b6000600a60009054906101000a900473ffffffffffffffffffffffffffffffffffffffff16905081600a60006101000a81548173ffffffffffffffffffffffffffffffffffffffff021916908373ffffffffffffffffffffffffffffffffffffffff1602179055508173ffffffffffffffffffffffffffffffffffffffff168173ffffffffffffffffffffffffffffffffffffffff167f8be0079c531659141344cd1fd0a4f28419497f9722a3daafe3b4186f6b6457e060405160405180910390a35050565b61124d82826040518060200160405280600081525061193f565b5050565b600073ffffffffffffffffffffffffffffffffffffffff168273ffffffffffffffffffffffffffffffffffffffff16036112c257816040517f5b08ba180000000000000000000000000000000000000000000000000000000081526004016112b991906125f8565b60405180910390fd5b80600560008573ffffffffffffffffffffffffffffffffffffffff1673ffffffffffffffffffffffffffffffffffffffff16815260200190815260200160002060008473ffffffffffffffffffffffffffffffffffffffff1673ffffffffffffffffffffffffffffffffffffffff16815260200190815260200160002060006101000a81548160ff0219169083151502179055508173ffffffffffffffffffffffffffffffffffffffff168373ffffffffffffffffffffffffffffffffffffffff167f17307eab39ab6107e8899845ad3d59bd9653f200f220920489ca2b5937696c31836040516113b39190612487565b60405180910390a3505050565b60008373ffffffffffffffffffffffffffffffffffffffff163b1115611571578273ffffffffffffffffffffffffffffffffffffffff1663150b7a02611404610fca565b8685856040518563ffffffff1660e01b815260040161142694939291906131ac565b6020604051808303816000875af192505050801561146257506040513d601f19601f8201168201806040525081019061145f919061320d565b60015b6114e6573d8060008114611492576040519150601f19603f3d011682016040523d82523d6000602084013e611497565b606091505b5060008151036114de57836040517f64a0ae920000000000000000000000000000000000000000000000000000000081526004016114d591906125f8565b60405180910390fd5b805181602001fd5b63150b7a0260e01b7bffffffffffffffffffffffffffffffffffffffffffffffffffffffff1916817bffffffffffffffffffffffffffffffffffffffffffffffffffffffff19161461156f57836040517f64a0ae9200000000000000000000000000000000000000000000000000000000815260040161156691906125f8565b60405180910390fd5b505b50505050565b6060600060016115868461195b565b01905060008167ffffffffffffffff8111156115a5576115a461292c565b5b6040519080825280601f01601f1916602001820160405280156115d75781602001600182028036833780820191505090505b509050600082602001820190505b60011561163a578080600190039150507f3031323334353637383961626364656600000000000000000000000000000000600a86061a8153600a858161162e5761162d61323a565b5b049450600085036115e5575b819350505050919050565b60007f80ac58cd000000000000000000000000000000000000000000000000000000007bffffffffffffffffffffffffffffffffffffffffffffffffffffffff1916827bffffffffffffffffffffffffffffffffffffffffffffffffffffffff1916148061171057507f5b5e139f000000000000000000000000000000000000000000000000000000007bffffffffffffffffffffffffffffffffffffffffffffffffffffffff1916827bffffffffffffffffffffffffffffffffffffffffffffffffffffffff1916145b80611720575061171f82611aae565b5b9050919050565b60006002600083815260200190815260200160002060009054906101000a900473ffffffffffffffffffffffffffffffffffffffff169050919050565b808061179d5750600073ffffffffffffffffffffffffffffffffffffffff168273ffffffffffffffffffffffffffffffffffffffff1614155b156118d15760006117ad84610f05565b9050600073ffffffffffffffffffffffffffffffffffffffff168373ffffffffffffffffffffffffffffffffffffffff161415801561181857508273ffffffffffffffffffffffffffffffffffffffff168173ffffffffffffffffffffffffffffffffffffffff1614155b801561182b57506118298184610d59565b155b1561186d57826040517fa9fbf51f00000000000000000000000000000000000000000000000000000000815260040161186491906125f8565b60405180910390fd5b81156118cf57838573ffffffffffffffffffffffffffffffffffffffff168273ffffffffffffffffffffffffffffffffffffffff167f8c5be1e5ebec7d5bd14f71427d1e84f3dd0314c0f7b2291e5b200ac8c7c3b92560405160405180910390a45b505b836004600085815260200190815260200160002060006101000a81548173ffffffffffffffffffffffffffffffffffffffff021916908373ffffffffffffffffffffffffffffffffffffffff16021790555050505050565b6000611936848484611b18565b90509392505050565b6119498383611c35565b61195660008484846113c0565b505050565b600080600090507a184f03e93ff9f4daa797ed6e38ed64bf6a1f01000000000000000083106119b9577a184f03e93ff9f4daa797ed6e38ed64bf6a1f01000000000000000083816119af576119ae61323a565b5b0492506040810190505b6d04ee2d6d415b85acef810000000083106119f6576d04ee2d6d415b85acef810000000083816119ec576119eb61323a565b5b0492506020810190505b662386f26fc100008310611a2557662386f26fc100008381611a1b57611a1a61323a565b5b0492506010810190505b6305f5e1008310611a4e576305f5e1008381611a4457611a4361323a565b5b0492506008810190505b6127108310611a73576127108381611a6957611a6861323a565b5b0492506004810190505b60648310611a965760648381611a8c57611a8b61323a565b5b0492506002810190505b600a8310611aa5576001810190505b80915050919050565b60007f01ffc9a7000000000000000000000000000000000000000000000000000000007bffffffffffffffffffffffffffffffffffffffffffffffffffffffff1916827bffffffffffffffffffffffffffffffffffffffffffffffffffffffff1916149050919050565b600080611b26858585611d2e565b9050600073ffffffffffffffffffffffffffffffffffffffff168173ffffffffffffffffffffffffffffffffffffffff1603611b6a57611b6584611f48565b611ba9565b8473ffffffffffffffffffffffffffffffffffffffff168173ffffffffffffffffffffffffffffffffffffffff1614611ba857611ba78185611f91565b5b5b600073ffffffffffffffffffffffffffffffffffffffff168573ffffffffffffffffffffffffffffffffffffffff1603611beb57611be6846120f2565b611c2a565b8473ffffffffffffffffffffffffffffffffffffffff168173ffffffffffffffffffffffffffffffffffffffff1614611c2957611c2885856121c3565b5b5b809150509392505050565b600073ffffffffffffffffffffffffffffffffffffffff168273ffffffffffffffffffffffffffffffffffffffff1603611ca75760006040517f64a0ae92000000000000000000000000000000000000000000000000000000008152600401611c9e91906125f8565b60405180910390fd5b6000611cb583836000611929565b9050600073ffffffffffffffffffffffffffffffffffffffff168173ffffffffffffffffffffffffffffffffffffffff1614611d295760006040517f73c6ac6e000000000000000000000000000000000000000000000000000000008152600401611d2091906125f8565b60405180910390fd5b505050565b600080611d3a84611727565b9050600073ffffffffffffffffffffffffffffffffffffffff168373ffffffffffffffffffffffffffffffffffffffff1614611d7c57611d7b81848661224e565b5b600073ffffffffffffffffffffffffffffffffffffffff168173ffffffffffffffffffffffffffffffffffffffff1614611e0d57611dbe600085600080611764565b6001600360008373ffffffffffffffffffffffffffffffffffffffff1673ffffffffffffffffffffffffffffffffffffffff168152602001908152602001600020600082825403925050819055505b600073ffffffffffffffffffffffffffffffffffffffff168573ffffffffffffffffffffffffffffffffffffffff1614611e90576001600360008773ffffffffffffffffffffffffffffffffffffffff1673ffffffffffffffffffffffffffffffffffffffff168152602001908152602001600020600082825401925050819055505b846002600086815260200190815260200160002060006101000a81548173ffffffffffffffffffffffffffffffffffffffff021916908373ffffffffffffffffffffffffffffffffffffffff160217905550838573ffffffffffffffffffffffffffffffffffffffff168273ffffffffffffffffffffffffffffffffffffffff167fddf252ad1be2c89b69c2b068fc378daa952ba7f163c4a11628f55a4df523b3ef60405160405180910390a4809150509392505050565b6008805490506009600083815260200190815260200160002081905550600881908060018154018082558091505060019003906000526020600020016000909190919091505550565b6000611f9c83610908565b9050600060076000848152602001908152602001600020549050818114612081576000600660008673ffffffffffffffffffffffffffffffffffffffff1673ffffffffffffffffffffffffffffffffffffffff168152602001908152602001600020600084815260200190815260200160002054905080600660008773ffffffffffffffffffffffffffffffffffffffff1673ffffffffffffffffffffffffffffffffffffffff168152602001908152602001600020600084815260200190815260200160002081905550816007600083815260200190815260200160002081905550505b6007600084815260200190815260200160002060009055600660008573ffffffffffffffffffffffffffffffffffffffff1673ffffffffffffffffffffffffffffffffffffffff16815260200190815260200160002060008381526020019081526020016000206000905550505050565b600060016008805490506121069190612ba9565b905060006009600084815260200190815260200160002054905060006008838154811061213657612135612c06565b5b90600052602060002001549050806008838154811061215857612157612c06565b5b9060005260206000200181905550816009600083815260200190815260200160002081905550600960008581526020019081526020016000206000905560088054806121a7576121a6613269565b5b6001900381819060005260206000200160009055905550505050565b600060016121d084610908565b6121da9190612ba9565b905081600660008573ffffffffffffffffffffffffffffffffffffffff1673ffffffffffffffffffffffffffffffffffffffff168152602001908152602001600020600083815260200190815260200160002081905550806007600084815260200190815260200160002081905550505050565b612259838383612312565b61230d57600073ffffffffffffffffffffffffffffffffffffffff168373ffffffffffffffffffffffffffffffffffffffff16036122ce57806040517f7e2732890000000000000000000000000000000000000000000000000000000081526004016122c5919061268e565b60405180910390fd5b81816040517f177e802f000000000000000000000000000000000000000000000000000000008152600401612304929190612bdd565b60405180910390fd5b505050565b60008073ffffffffffffffffffffffffffffffffffffffff168373ffffffffffffffffffffffffffffffffffffffff16141580156123ca57508273ffffffffffffffffffffffffffffffffffffffff168473ffffffffffffffffffffffffffffffffffffffff16148061238b575061238a8484610d59565b5b806123c957508273ffffffffffffffffffffffffffffffffffffffff166123b183610f8d565b73ffffffffffffffffffffffffffffffffffffffff16145b5b90509392505050565b6000604051905090565b600080fd5b600080fd5b60007fffffffff0000000000000000000000000000000000000000000000000000000082169050919050565b61241c816123e7565b811461242757600080fd5b50565b60008135905061243981612413565b92915050565b600060208284031215612455576124546123dd565b5b60006124638482850161242a565b91505092915050565b60008115159050919050565b6124818161246c565b82525050565b600060208201905061249c6000830184612478565b92915050565b600081519050919050565b600082825260208201905092915050565b60005b838110156124dc5780820151818401526020810190506124c1565b60008484015250505050565b6000601f19601f8301169050919050565b6000612504826124a2565b61250e81856124ad565b935061251e8185602086016124be565b612527816124e8565b840191505092915050565b6000602082019050818103600083015261254c81846124f9565b905092915050565b6000819050919050565b61256781612554565b811461257257600080fd5b50565b6000813590506125848161255e565b92915050565b6000602082840312156125a05761259f6123dd565b5b60006125ae84828501612575565b91505092915050565b600073ffffffffffffffffffffffffffffffffffffffff82169050919050565b60006125e2826125b7565b9050919050565b6125f2816125d7565b82525050565b600060208201905061260d60008301846125e9565b92915050565b61261c816125d7565b811461262757600080fd5b50565b60008135905061263981612613565b92915050565b60008060408385031215612656576126556123dd565b5b60006126648582860161262a565b925050602061267585828601612575565b9150509250929050565b61268881612554565b82525050565b60006020820190506126a3600083018461267f565b92915050565b6000806000606084860312156126c2576126c16123dd565b5b60006126d08682870161262a565b93505060206126e18682870161262a565b92505060406126f286828701612575565b9150509250925092565b600060208284031215612712576127116123dd565b5b60006127208482850161262a565b91505092915050565b600081519050919050565b600082825260208201905092915050565b6000819050602082019050919050565b61275e81612554565b82525050565b60006127708383612755565b60208301905092915050565b6000602082019050919050565b600061279482612729565b61279e8185612734565b93506127a983612745565b8060005b838110156127da5781516127c18882612764565b97506127cc8361277c565b9250506001810190506127ad565b5085935050505092915050565b600060208201905081810360008301526128018184612789565b905092915050565b600080fd5b600080fd5b600080fd5b60008083601f84011261282e5761282d612809565b5b8235905067ffffffffffffffff81111561284b5761284a61280e565b5b60208301915083600182028301111561286757612866612813565b5b9250929050565b60008060208385031215612885576128846123dd565b5b600083013567ffffffffffffffff8111156128a3576128a26123e2565b5b6128af85828601612818565b92509250509250929050565b6128c48161246c565b81146128cf57600080fd5b50565b6000813590506128e1816128bb565b92915050565b600080604083850312156128fe576128fd6123dd565b5b600061290c8582860161262a565b925050602061291d858286016128d2565b9150509250929050565b600080fd5b7f4e487b7100000000000000000000000000000000000000000000000000000000600052604160045260246000fd5b612964826124e8565b810181811067ffffffffffffffff821117156129835761298261292c565b5b80604052505050565b60006129966123d3565b90506129a2828261295b565b919050565b600067ffffffffffffffff8211156129c2576129c161292c565b5b6129cb826124e8565b9050602081019050919050565b82818337600083830152505050565b60006129fa6129f5846129a7565b61298c565b905082815260208101848484011115612a1657612a15612927565b5b612a218482856129d8565b509392505050565b600082601f830112612a3e57612a3d612809565b5b8135612a4e8482602086016129e7565b91505092915050565b60008060008060808587031215612a7157612a706123dd565b5b6000612a7f8782880161262a565b9450506020612a908782880161262a565b9350506040612aa187828801612575565b925050606085013567ffffffffffffffff811115612ac257612ac16123e2565b5b612ace87828801612a29565b91505092959194509250565b60008060408385031215612af157612af06123dd565b5b6000612aff8582860161262a565b9250506020612b108582860161262a565b9150509250929050565b7f4e487b7100000000000000000000000000000000000000000000000000000000600052602260045260246000fd5b60006002820490506001821680612b6157607f821691505b602082108103612b7457612b73612b1a565b5b50919050565b7f4e487b7100000000000000000000000000000000000000000000000000000000600052601160045260246000fd5b6000612bb482612554565b9150612bbf83612554565b9250828203905081811115612bd757612bd6612b7a565b5b92915050565b6000604082019050612bf260008301856125e9565b612bff602083018461267f565b9392505050565b7f4e487b7100000000000000000000000000000000000000000000000000000000600052603260045260246000fd5b6000612c4082612554565b91507fffffffffffffffffffffffffffffffffffffffffffffffffffffffffffffffff8203612c7257612c71612b7a565b5b600182019050919050565b600082905092915050565b60008190508160005260206000209050919050565b60006020601f8301049050919050565b600082821b905092915050565b600060088302612cea7fffffffffffffffffffffffffffffffffffffffffffffffffffffffffffffffff82612cad565b612cf48683612cad565b95508019841693508086168417925050509392505050565b6000819050919050565b6000612d31612d2c612d2784612554565b612d0c565b612554565b9050919050565b6000819050919050565b612d4b83612d16565b612d5f612d5782612d38565b848454612cba565b825550505050565b600090565b612d74612d67565b612d7f818484612d42565b505050565b5b81811015612da357612d98600082612d6c565b600181019050612d85565b5050565b601f821115612de857612db981612c88565b612dc284612c9d565b81016020851015612dd1578190505b612de5612ddd85612c9d565b830182612d84565b50505b505050565b600082821c905092915050565b6000612e0b60001984600802612ded565b1980831691505092915050565b6000612e248383612dfa565b9150826002028217905092915050565b612e3e8383612c7d565b67ffffffffffffffff811115612e5757612e5661292c565b5b612e618254612b49565b612e6c828285612da7565b6000601f831160018114612e9b5760008415612e89578287013590505b612e938582612e18565b865550612efb565b601f198416612ea986612c88565b60005b82811015612ed157848901358255600182019150602085019450602081019050612eac565b86831015612eee5784890135612eea601f891682612dfa565b8355505b6001600288020188555050505b50505050505050565b6000612f0f82612554565b9150612f1a83612554565b9250828202612f2881612554565b91508282048414831517612f3f57612f3e612b7a565b5b5092915050565b7f596f752068617665206e6f7420656e6f756768206d6f6e657921000000000000600082015250565b6000612f7c601a836124ad565b9150612f8782612f46565b602082019050919050565b60006020820190508181036000830152612fab81612f6f565b9050919050565b6000612fbd82612554565b9150612fc883612554565b9250828201905080821115612fe057612fdf612b7a565b5b92915050565b600081905092915050565b60008154612ffe81612b49565b6130088186612fe6565b9450600182166000811461302357600181146130385761306b565b60ff198316865281151582028601935061306b565b61304185612c88565b60005b8381101561306357815481890152600182019150602081019050613044565b838801955050505b50505092915050565b600061307f826124a2565b6130898185612fe6565b93506130998185602086016124be565b80840191505092915050565b7f2e6a736f6e000000000000000000000000000000000000000000000000000000600082015250565b60006130db600583612fe6565b91506130e6826130a5565b600582019050919050565b60006130fd8285612ff1565b91506131098284613074565b9150613114826130ce565b91508190509392505050565b600060608201905061313560008301866125e9565b613142602083018561267f565b61314f60408301846125e9565b949350505050565b600081519050919050565b600082825260208201905092915050565b600061317e82613157565b6131888185613162565b93506131988185602086016124be565b6131a1816124e8565b840191505092915050565b60006080820190506131c160008301876125e9565b6131ce60208301866125e9565b6131db604083018561267f565b81810360608301526131ed8184613173565b905095945050505050565b60008151905061320781612413565b92915050565b600060208284031215613223576132226123dd565b5b6000613231848285016131f8565b91505092915050565b7f4e487b7100000000000000000000000000000000000000000000000000000000600052601260045260246000fd5b7f4e487b7100000000000000000000000000000000000000000000000000000000600052603160045260246000fdfea2646970667358221220ff55bda02346f4bdca18a57bb2b536535fb651a8bd1a74c5ea000dbbe1e0d76364736f6c63430008150033",
  "linkReferences": {},
  "deployedLinkReferences": {}
}