{
  "_format": "hh-sol-artifact-1",
  "contractName": "Marketplace",
  "sourceName": "contracts/Marketplace.sol",
  "abi": [
    {
      "inputs": [],
      "stateMutability": "nonpayable",
      "type": "constructor"
    },
    {
      "anonymous": false,
      "inputs": [
        {
          "indexed": true,
          "internalType": "uint256",
          "name": "saleId",
          "type": "uint256"
        },
        {
          "indexed": false,
          "internalType": "uint256",
          "name": "tokenId",
          "type": "uint256"
        },
        {
          "indexed": false,
          "internalType": "address",
          "name": "nftContract",
          "type": "address"
        },
        {
          "indexed": false,
          "internalType": "uint256",
          "name": "price",
          "type": "uint256"
        },
        {
          "indexed": false,
          "internalType": "address",
          "name": "owner",
          "type": "address"
        },
        {
          "indexed": false,
          "internalType": "bool",
          "name": "isSold",
          "type": "bool"
        }
      ],
      "name": "CreateSale",
      "type": "event"
    },
    {
      "inputs": [
        {
          "internalType": "uint256",
          "name": "id",
          "type": "uint256"
        }
      ],
      "name": "cancelSale",
      "outputs": [],
      "stateMutability": "nonpayable",
      "type": "function"
    },
    {
      "inputs": [
        {
          "internalType": "uint256",
          "name": "id",
          "type": "uint256"
        }
      ],
      "name": "completeSale",
      "outputs": [],
      "stateMutability": "payable",
      "type": "function"
    },
    {
      "inputs": [
        {
          "internalType": "uint256",
          "name": "_saleTokenId",
          "type": "uint256"
        },
        {
          "internalType": "address",
          "name": "_saleNftContract",
          "type": "address"
        },
        {
          "internalType": "uint256",
          "name": "_price",
          "type": "uint256"
        }
      ],
      "name": "createSale",
      "outputs": [],
      "stateMutability": "nonpayable",
      "type": "function"
    },
    {
      "inputs": [
        {
          "internalType": "uint256",
          "name": "id",
          "type": "uint256"
        },
        {
          "internalType": "uint256",
          "name": "newPrice",
          "type": "uint256"
        }
      ],
      "name": "editSale",
      "outputs": [],
      "stateMutability": "nonpayable",
      "type": "function"
    },
    {
      "inputs": [],
      "name": "getAllSales",
      "outputs": [
        {
          "components": [
            {
              "internalType": "uint256",
              "name": "saleId",
              "type": "uint256"
            },
            {
              "internalType": "uint256",
              "name": "tokenId",
              "type": "uint256"
            },
            {
              "internalType": "address",
              "name": "nftContract",
              "type": "address"
            },
            {
              "internalType": "uint256",
              "name": "price",
              "type": "uint256"
            },
            {
              "internalType": "address payable",
              "name": "owner",
              "type": "address"
            },
            {
              "internalType": "bool",
              "name": "isSold",
              "type": "bool"
            }
          ],
          "internalType": "struct Marketplace.Sale[]",
          "name": "",
          "type": "tuple[]"
        }
      ],
      "stateMutability": "view",
      "type": "function"
    },
    {
      "inputs": [
        {
          "internalType": "uint256",
          "name": "_saleId",
          "type": "uint256"
        }
      ],
      "name": "getSale",
      "outputs": [
        {
          "components": [
            {
              "internalType": "uint256",
              "name": "saleId",
              "type": "uint256"
            },
            {
              "internalType": "uint256",
              "name": "tokenId",
              "type": "uint256"
            },
            {
              "internalType": "address",
              "name": "nftContract",
              "type": "address"
            },
            {
              "internalType": "uint256",
              "name": "price",
              "type": "uint256"
            },
            {
              "internalType": "address payable",
              "name": "owner",
              "type": "address"
            },
            {
              "internalType": "bool",
              "name": "isSold",
              "type": "bool"
            }
          ],
          "internalType": "struct Marketplace.Sale",
          "name": "",
          "type": "tuple"
        }
      ],
      "stateMutability": "view",
      "type": "function"
    },
    {
      "inputs": [
        {
          "internalType": "address",
          "name": "",
          "type": "address"
        },
        {
          "internalType": "address",
          "name": "",
          "type": "address"
        },
        {
          "internalType": "uint256",
          "name": "",
          "type": "uint256"
        },
        {
          "internalType": "bytes",
          "name": "",
          "type": "bytes"
        }
      ],
      "name": "onERC721Received",
      "outputs": [
        {
          "internalType": "bytes4",
          "name": "",
          "type": "bytes4"
        }
      ],
      "stateMutability": "pure",
      "type": "function"
    }
  ],
  "bytecode": "0x608060405234801561001057600080fd5b506000808190555061175b806100276000396000f3fe6080604052600436106100705760003560e01c806347ab20901161004e57806347ab209014610106578063750225d01461012f578063bd94b0051461014b578063d8f6d5961461017457610070565b8063150b7a021461007557806333396917146100b257806339ffc973146100dd575b600080fd5b34801561008157600080fd5b5061009c60048036038101906100979190610feb565b6101b1565b6040516100a991906110ae565b60405180910390f35b3480156100be57600080fd5b506100c76101c6565b6040516100d4919061124d565b60405180910390f35b3480156100e957600080fd5b5061010460048036038101906100ff919061126f565b610382565b005b34801561011257600080fd5b5061012d600480360381019061012891906112af565b61051d565b005b61014960048036038101906101449190611302565b6107ff565b005b34801561015757600080fd5b50610172600480360381019061016d9190611302565b610a41565b005b34801561018057600080fd5b5061019b60048036038101906101969190611302565b610d72565b6040516101a891906113aa565b60405180910390f35b600063150b7a0260e01b905095945050505050565b60606000805490506000808267ffffffffffffffff8111156101eb576101ea6113c5565b5b60405190808252806020026020018201604052801561022457816020015b610211610e84565b8152602001906001900390816102095790505b5090506000600190505b83811161037857600260008281526020019081526020016000206040518060c001604052908160008201548152602001600182015481526020016002820160009054906101000a900473ffffffffffffffffffffffffffffffffffffffff1673ffffffffffffffffffffffffffffffffffffffff1673ffffffffffffffffffffffffffffffffffffffff168152602001600382015481526020016004820160009054906101000a900473ffffffffffffffffffffffffffffffffffffffff1673ffffffffffffffffffffffffffffffffffffffff1673ffffffffffffffffffffffffffffffffffffffff1681526020016004820160149054906101000a900460ff16151515158152505082848151811061034b5761034a6113f4565b5b60200260200101819052506001836103639190611452565b9250808061037090611486565b91505061022e565b5080935050505090565b816000600260008381526020019081526020016000206040518060c001604052908160008201548152602001600182015481526020016002820160009054906101000a900473ffffffffffffffffffffffffffffffffffffffff1673ffffffffffffffffffffffffffffffffffffffff1673ffffffffffffffffffffffffffffffffffffffff168152602001600382015481526020016004820160009054906101000a900473ffffffffffffffffffffffffffffffffffffffff1673ffffffffffffffffffffffffffffffffffffffff1673ffffffffffffffffffffffffffffffffffffffff1681526020016004820160149054906101000a900460ff1615151515815250509050806080015173ffffffffffffffffffffffffffffffffffffffff163373ffffffffffffffffffffffffffffffffffffffff16146104fc576040517f08c379a00000000000000000000000000000000000000000000000000000000081526004016104f39061152b565b60405180910390fd5b82600260008681526020019081526020016000206003018190555050505050565b60008290503373ffffffffffffffffffffffffffffffffffffffff168173ffffffffffffffffffffffffffffffffffffffff16636352211e866040518263ffffffff1660e01b8152600401610572919061155a565b602060405180830381865afa15801561058f573d6000803e3d6000fd5b505050506040513d601f19601f820116820180604052508101906105b3919061158a565b73ffffffffffffffffffffffffffffffffffffffff1614610609576040517f08c379a00000000000000000000000000000000000000000000000000000000081526004016106009061152b565b60405180910390fd5b8073ffffffffffffffffffffffffffffffffffffffff166342842e0e3330876040518463ffffffff1660e01b8152600401610646939291906115c6565b600060405180830381600087803b15801561066057600080fd5b505af1158015610674573d6000803e3d6000fd5b5050505060016000546106879190611452565b600081905550600160005490806001815401808255809150506001900390600052602060002001600090919091909150556040518060c0016040528060005481526020018581526020018473ffffffffffffffffffffffffffffffffffffffff1681526020018381526020013373ffffffffffffffffffffffffffffffffffffffff168152602001600015158152506002600080548152602001908152602001600020600082015181600001556020820151816001015560408201518160020160006101000a81548173ffffffffffffffffffffffffffffffffffffffff021916908373ffffffffffffffffffffffffffffffffffffffff1602179055506060820151816003015560808201518160040160006101000a81548173ffffffffffffffffffffffffffffffffffffffff021916908373ffffffffffffffffffffffffffffffffffffffff16021790555060a08201518160040160146101000a81548160ff02191690831515021790555090505050505050565b6000600260008381526020019081526020016000206040518060c001604052908160008201548152602001600182015481526020016002820160009054906101000a900473ffffffffffffffffffffffffffffffffffffffff1673ffffffffffffffffffffffffffffffffffffffff1673ffffffffffffffffffffffffffffffffffffffff168152602001600382015481526020016004820160009054906101000a900473ffffffffffffffffffffffffffffffffffffffff1673ffffffffffffffffffffffffffffffffffffffff1673ffffffffffffffffffffffffffffffffffffffff1681526020016004820160149054906101000a900460ff16151515158152505090508060600151341461094c576040517f08c379a00000000000000000000000000000000000000000000000000000000081526004016109439061166f565b60405180910390fd5b806040015173ffffffffffffffffffffffffffffffffffffffff166342842e0e303384602001516040518463ffffffff1660e01b8152600401610991939291906115c6565b600060405180830381600087803b1580156109ab57600080fd5b505af11580156109bf573d6000803e3d6000fd5b50505050806080015173ffffffffffffffffffffffffffffffffffffffff166108fc349081150290604051600060405180830381858888f19350505050158015610a0d573d6000803e3d6000fd5b5060016002600084815260200190815260200160002060040160146101000a81548160ff0219169083151502179055505050565b806000600260008381526020019081526020016000206040518060c001604052908160008201548152602001600182015481526020016002820160009054906101000a900473ffffffffffffffffffffffffffffffffffffffff1673ffffffffffffffffffffffffffffffffffffffff1673ffffffffffffffffffffffffffffffffffffffff168152602001600382015481526020016004820160009054906101000a900473ffffffffffffffffffffffffffffffffffffffff1673ffffffffffffffffffffffffffffffffffffffff1673ffffffffffffffffffffffffffffffffffffffff1681526020016004820160149054906101000a900460ff1615151515815250509050806080015173ffffffffffffffffffffffffffffffffffffffff163373ffffffffffffffffffffffffffffffffffffffff1614610bbb576040517f08c379a0000000000000000000000000000000000000000000000000000000008152600401610bb29061152b565b60405180910390fd5b6000600260008581526020019081526020016000206040518060c001604052908160008201548152602001600182015481526020016002820160009054906101000a900473ffffffffffffffffffffffffffffffffffffffff1673ffffffffffffffffffffffffffffffffffffffff1673ffffffffffffffffffffffffffffffffffffffff168152602001600382015481526020016004820160009054906101000a900473ffffffffffffffffffffffffffffffffffffffff1673ffffffffffffffffffffffffffffffffffffffff1673ffffffffffffffffffffffffffffffffffffffff1681526020016004820160149054906101000a900460ff1615151515815250509050806040015173ffffffffffffffffffffffffffffffffffffffff166342842e0e30836080015184602001516040518463ffffffff1660e01b8152600401610d0b939291906116ee565b600060405180830381600087803b158015610d2557600080fd5b505af1158015610d39573d6000803e3d6000fd5b5050505060016002600086815260200190815260200160002060040160146101000a81548160ff02191690831515021790555050505050565b610d7a610e84565b600260008381526020019081526020016000206040518060c001604052908160008201548152602001600182015481526020016002820160009054906101000a900473ffffffffffffffffffffffffffffffffffffffff1673ffffffffffffffffffffffffffffffffffffffff1673ffffffffffffffffffffffffffffffffffffffff168152602001600382015481526020016004820160009054906101000a900473ffffffffffffffffffffffffffffffffffffffff1673ffffffffffffffffffffffffffffffffffffffff1673ffffffffffffffffffffffffffffffffffffffff1681526020016004820160149054906101000a900460ff1615151515815250509050919050565b6040518060c001604052806000815260200160008152602001600073ffffffffffffffffffffffffffffffffffffffff16815260200160008152602001600073ffffffffffffffffffffffffffffffffffffffff1681526020016000151581525090565b600080fd5b600080fd5b600073ffffffffffffffffffffffffffffffffffffffff82169050919050565b6000610f1d82610ef2565b9050919050565b610f2d81610f12565b8114610f3857600080fd5b50565b600081359050610f4a81610f24565b92915050565b6000819050919050565b610f6381610f50565b8114610f6e57600080fd5b50565b600081359050610f8081610f5a565b92915050565b600080fd5b600080fd5b600080fd5b60008083601f840112610fab57610faa610f86565b5b8235905067ffffffffffffffff811115610fc857610fc7610f8b565b5b602083019150836001820283011115610fe457610fe3610f90565b5b9250929050565b60008060008060006080868803121561100757611006610ee8565b5b600061101588828901610f3b565b955050602061102688828901610f3b565b945050604061103788828901610f71565b935050606086013567ffffffffffffffff81111561105857611057610eed565b5b61106488828901610f95565b92509250509295509295909350565b60007fffffffff0000000000000000000000000000000000000000000000000000000082169050919050565b6110a881611073565b82525050565b60006020820190506110c3600083018461109f565b92915050565b600081519050919050565b600082825260208201905092915050565b6000819050602082019050919050565b6110fe81610f50565b82525050565b61110d81610f12565b82525050565b600061111e82610ef2565b9050919050565b61112e81611113565b82525050565b60008115159050919050565b61114981611134565b82525050565b60c08201600082015161116560008501826110f5565b50602082015161117860208501826110f5565b50604082015161118b6040850182611104565b50606082015161119e60608501826110f5565b5060808201516111b16080850182611125565b5060a08201516111c460a0850182611140565b50505050565b60006111d6838361114f565b60c08301905092915050565b6000602082019050919050565b60006111fa826110c9565b61120481856110d4565b935061120f836110e5565b8060005b8381101561124057815161122788826111ca565b9750611232836111e2565b925050600181019050611213565b5085935050505092915050565b6000602082019050818103600083015261126781846111ef565b905092915050565b6000806040838503121561128657611285610ee8565b5b600061129485828601610f71565b92505060206112a585828601610f71565b9150509250929050565b6000806000606084860312156112c8576112c7610ee8565b5b60006112d686828701610f71565b93505060206112e786828701610f3b565b92505060406112f886828701610f71565b9150509250925092565b60006020828403121561131857611317610ee8565b5b600061132684828501610f71565b91505092915050565b60c08201600082015161134560008501826110f5565b50602082015161135860208501826110f5565b50604082015161136b6040850182611104565b50606082015161137e60608501826110f5565b5060808201516113916080850182611125565b5060a08201516113a460a0850182611140565b50505050565b600060c0820190506113bf600083018461132f565b92915050565b7f4e487b7100000000000000000000000000000000000000000000000000000000600052604160045260246000fd5b7f4e487b7100000000000000000000000000000000000000000000000000000000600052603260045260246000fd5b7f4e487b7100000000000000000000000000000000000000000000000000000000600052601160045260246000fd5b600061145d82610f50565b915061146883610f50565b92508282019050808211156114805761147f611423565b5b92915050565b600061149182610f50565b91507fffffffffffffffffffffffffffffffffffffffffffffffffffffffffffffffff82036114c3576114c2611423565b5b600182019050919050565b600082825260208201905092915050565b7f596f7520617265206e6f7420746865206f776e65722100000000000000000000600082015250565b60006115156016836114ce565b9150611520826114df565b602082019050919050565b6000602082019050818103600083015261154481611508565b9050919050565b61155481610f50565b82525050565b600060208201905061156f600083018461154b565b92915050565b60008151905061158481610f24565b92915050565b6000602082840312156115a05761159f610ee8565b5b60006115ae84828501611575565b91505092915050565b6115c081610f12565b82525050565b60006060820190506115db60008301866115b7565b6115e860208301856115b7565b6115f5604083018461154b565b949350505050565b7f596f75206861766520746f2073656e642074686520726967687420616d6f756e60008201527f74206f6620657468657221000000000000000000000000000000000000000000602082015250565b6000611659602b836114ce565b9150611664826115fd565b604082019050919050565b600060208201905081810360008301526116888161164c565b9050919050565b6000819050919050565b60006116b46116af6116aa84610ef2565b61168f565b610ef2565b9050919050565b60006116c682611699565b9050919050565b60006116d8826116bb565b9050919050565b6116e8816116cd565b82525050565b600060608201905061170360008301866115b7565b61171060208301856116df565b61171d604083018461154b565b94935050505056fea264697066735822122018423fe0c152b8c21b10547079f833f178008254f7e580ec371c270412d9f31e64736f6c63430008170033",
  "linkReferences": {},
  "deployedLinkReferences": {}
}